{"abi":[{"type":"constructor","inputs":[{"name":"_registry","type":"address","internalType":"address"},{"name":"_implementation","type":"address","internalType":"address"}],"stateMutability":"nonpayable"},{"type":"function","name":"createAccount","inputs":[{"name":"tokenContract","type":"address","internalType":"address"},{"name":"tokenId","type":"uint256","internalType":"uint256"}],"outputs":[{"name":"","type":"address","internalType":"address"}],"stateMutability":"nonpayable"},{"type":"function","name":"getAccount","inputs":[{"name":"tokenContract","type":"address","internalType":"address"},{"name":"tokenId","type":"uint256","internalType":"uint256"}],"outputs":[{"name":"","type":"address","internalType":"address"}],"stateMutability":"view"},{"type":"function","name":"implementation","inputs":[],"outputs":[{"name":"","type":"address","internalType":"address"}],"stateMutability":"view"},{"type":"function","name":"registry","inputs":[],"outputs":[{"name":"","type":"address","internalType":"contract IERC6551Registry"}],"stateMutability":"view"}],"bytecode":{"object":"0x60c060405234801561001057600080fd5b506040516103c63803806103c683398101604081905261002f91610062565b6001600160a01b039182166080521660a052610095565b80516001600160a01b038116811461005d57600080fd5b919050565b6000806040838503121561007557600080fd5b61007e83610046565b915061008c60208401610046565b90509250929050565b60805160a0516102f36100d36000396000818160560152818160f801526101cc01526000818160bf0152818161013f015261021301526102f36000f3fe608060405234801561001057600080fd5b506004361061004c5760003560e01c80635c60da1b146100515780635fbfb9cf14610094578063670079eb146100a75780637b103999146100ba575b600080fd5b6100787f000000000000000000000000000000000000000000000000000000000000000081565b6040516001600160a01b03909116815260200160405180910390f35b6100786100a2366004610274565b6100e1565b6100786100b5366004610274565b6101b5565b6100787f000000000000000000000000000000000000000000000000000000000000000081565b604051638a54c52f60e01b81526001600160a01b037f000000000000000000000000000000000000000000000000000000000000000081166004830152600060248301819052466044840152848216606484015260848301849052917f000000000000000000000000000000000000000000000000000000000000000090911690638a54c52f9060a4016020604051808303816000875af115801561018a573d6000803e3d6000fd5b505050506040513d601f19601f820116820180604052508101906101ae91906102a0565b9392505050565b60405163246a002160e01b81526001600160a01b037f000000000000000000000000000000000000000000000000000000000000000081166004830152600060248301819052466044840152848216606484015260848301849052917f00000000000000000000000000000000000000000000000000000000000000009091169063246a00219060a401602060405180830381865afa15801561018a573d6000803e3d6000fd5b6001600160a01b038116811461027157600080fd5b50565b6000806040838503121561028757600080fd5b82356102928161025c565b946020939093013593505050565b6000602082840312156102b257600080fd5b81516101ae8161025c56fea2646970667358221220c4ec27a3a0abdb5c461c390418b5ac401b818e4e65b659963358be4fb9e264f964736f6c63430008180033","linkReferences":{}},"methodIdentifiers":{"createAccount(address,uint256)":"5fbfb9cf","getAccount(address,uint256)":"670079eb","implementation()":"5c60da1b","registry()":"7b103999"},"id":4}