{"abi":[{"type":"constructor","inputs":[{"name":"minDelay","type":"uint256","internalType":"uint256"},{"name":"proposers","type":"address[]","internalType":"address[]"},{"name":"executors","type":"address[]","internalType":"address[]"},{"name":"admin","type":"address","internalType":"address"}],"stateMutability":"nonpayable"},{"type":"receive","stateMutability":"payable"},{"type":"function","name":"CANCELLER_ROLE","inputs":[],"outputs":[{"name":"","type":"bytes32","internalType":"bytes32"}],"stateMutability":"view"},{"type":"function","name":"DEFAULT_ADMIN_ROLE","inputs":[],"outputs":[{"name":"","type":"bytes32","internalType":"bytes32"}],"stateMutability":"view"},{"type":"function","name":"EXECUTOR_ROLE","inputs":[],"outputs":[{"name":"","type":"bytes32","internalType":"bytes32"}],"stateMutability":"view"},{"type":"function","name":"PROPOSER_ROLE","inputs":[],"outputs":[{"name":"","type":"bytes32","internalType":"bytes32"}],"stateMutability":"view"},{"type":"function","name":"cancel","inputs":[{"name":"id","type":"bytes32","internalType":"bytes32"}],"outputs":[],"stateMutability":"nonpayable"},{"type":"function","name":"execute","inputs":[{"name":"target","type":"address","internalType":"address"},{"name":"value","type":"uint256","internalType":"uint256"},{"name":"payload","type":"bytes","internalType":"bytes"},{"name":"predecessor","type":"bytes32","internalType":"bytes32"},{"name":"salt","type":"bytes32","internalType":"bytes32"}],"outputs":[],"stateMutability":"payable"},{"type":"function","name":"executeBatch","inputs":[{"name":"targets","type":"address[]","internalType":"address[]"},{"name":"values","type":"uint256[]","internalType":"uint256[]"},{"name":"payloads","type":"bytes[]","internalType":"bytes[]"},{"name":"predecessor","type":"bytes32","internalType":"bytes32"},{"name":"salt","type":"bytes32","internalType":"bytes32"}],"outputs":[],"stateMutability":"payable"},{"type":"function","name":"getMinDelay","inputs":[],"outputs":[{"name":"","type":"uint256","internalType":"uint256"}],"stateMutability":"view"},{"type":"function","name":"getOperationState","inputs":[{"name":"id","type":"bytes32","internalType":"bytes32"}],"outputs":[{"name":"","type":"uint8","internalType":"enum TimelockController.OperationState"}],"stateMutability":"view"},{"type":"function","name":"getRoleAdmin","inputs":[{"name":"role","type":"bytes32","internalType":"bytes32"}],"outputs":[{"name":"","type":"bytes32","internalType":"bytes32"}],"stateMutability":"view"},{"type":"function","name":"getTimestamp","inputs":[{"name":"id","type":"bytes32","internalType":"bytes32"}],"outputs":[{"name":"","type":"uint256","internalType":"uint256"}],"stateMutability":"view"},{"type":"function","name":"grantRole","inputs":[{"name":"role","type":"bytes32","internalType":"bytes32"},{"name":"account","type":"address","internalType":"address"}],"outputs":[],"stateMutability":"nonpayable"},{"type":"function","name":"hasRole","inputs":[{"name":"role","type":"bytes32","internalType":"bytes32"},{"name":"account","type":"address","internalType":"address"}],"outputs":[{"name":"","type":"bool","internalType":"bool"}],"stateMutability":"view"},{"type":"function","name":"hashOperation","inputs":[{"name":"target","type":"address","internalType":"address"},{"name":"value","type":"uint256","internalType":"uint256"},{"name":"data","type":"bytes","internalType":"bytes"},{"name":"predecessor","type":"bytes32","internalType":"bytes32"},{"name":"salt","type":"bytes32","internalType":"bytes32"}],"outputs":[{"name":"","type":"bytes32","internalType":"bytes32"}],"stateMutability":"pure"},{"type":"function","name":"hashOperationBatch","inputs":[{"name":"targets","type":"address[]","internalType":"address[]"},{"name":"values","type":"uint256[]","internalType":"uint256[]"},{"name":"payloads","type":"bytes[]","internalType":"bytes[]"},{"name":"predecessor","type":"bytes32","internalType":"bytes32"},{"name":"salt","type":"bytes32","internalType":"bytes32"}],"outputs":[{"name":"","type":"bytes32","internalType":"bytes32"}],"stateMutability":"pure"},{"type":"function","name":"isOperation","inputs":[{"name":"id","type":"bytes32","internalType":"bytes32"}],"outputs":[{"name":"","type":"bool","internalType":"bool"}],"stateMutability":"view"},{"type":"function","name":"isOperationDone","inputs":[{"name":"id","type":"bytes32","internalType":"bytes32"}],"outputs":[{"name":"","type":"bool","internalType":"bool"}],"stateMutability":"view"},{"type":"function","name":"isOperationPending","inputs":[{"name":"id","type":"bytes32","internalType":"bytes32"}],"outputs":[{"name":"","type":"bool","internalType":"bool"}],"stateMutability":"view"},{"type":"function","name":"isOperationReady","inputs":[{"name":"id","type":"bytes32","internalType":"bytes32"}],"outputs":[{"name":"","type":"bool","internalType":"bool"}],"stateMutability":"view"},{"type":"function","name":"onERC1155BatchReceived","inputs":[{"name":"","type":"address","internalType":"address"},{"name":"","type":"address","internalType":"address"},{"name":"","type":"uint256[]","internalType":"uint256[]"},{"name":"","type":"uint256[]","internalType":"uint256[]"},{"name":"","type":"bytes","internalType":"bytes"}],"outputs":[{"name":"","type":"bytes4","internalType":"bytes4"}],"stateMutability":"nonpayable"},{"type":"function","name":"onERC1155Received","inputs":[{"name":"","type":"address","internalType":"address"},{"name":"","type":"address","internalType":"address"},{"name":"","type":"uint256","internalType":"uint256"},{"name":"","type":"uint256","internalType":"uint256"},{"name":"","type":"bytes","internalType":"bytes"}],"outputs":[{"name":"","type":"bytes4","internalType":"bytes4"}],"stateMutability":"nonpayable"},{"type":"function","name":"onERC721Received","inputs":[{"name":"","type":"address","internalType":"address"},{"name":"","type":"address","internalType":"address"},{"name":"","type":"uint256","internalType":"uint256"},{"name":"","type":"bytes","internalType":"bytes"}],"outputs":[{"name":"","type":"bytes4","internalType":"bytes4"}],"stateMutability":"nonpayable"},{"type":"function","name":"renounceRole","inputs":[{"name":"role","type":"bytes32","internalType":"bytes32"},{"name":"callerConfirmation","type":"address","internalType":"address"}],"outputs":[],"stateMutability":"nonpayable"},{"type":"function","name":"revokeRole","inputs":[{"name":"role","type":"bytes32","internalType":"bytes32"},{"name":"account","type":"address","internalType":"address"}],"outputs":[],"stateMutability":"nonpayable"},{"type":"function","name":"schedule","inputs":[{"name":"target","type":"address","internalType":"address"},{"name":"value","type":"uint256","internalType":"uint256"},{"name":"data","type":"bytes","internalType":"bytes"},{"name":"predecessor","type":"bytes32","internalType":"bytes32"},{"name":"salt","type":"bytes32","internalType":"bytes32"},{"name":"delay","type":"uint256","internalType":"uint256"}],"outputs":[],"stateMutability":"nonpayable"},{"type":"function","name":"scheduleBatch","inputs":[{"name":"targets","type":"address[]","internalType":"address[]"},{"name":"values","type":"uint256[]","internalType":"uint256[]"},{"name":"payloads","type":"bytes[]","internalType":"bytes[]"},{"name":"predecessor","type":"bytes32","internalType":"bytes32"},{"name":"salt","type":"bytes32","internalType":"bytes32"},{"name":"delay","type":"uint256","internalType":"uint256"}],"outputs":[],"stateMutability":"nonpayable"},{"type":"function","name":"supportsInterface","inputs":[{"name":"interfaceId","type":"bytes4","internalType":"bytes4"}],"outputs":[{"name":"","type":"bool","internalType":"bool"}],"stateMutability":"view"},{"type":"function","name":"updateDelay","inputs":[{"name":"newDelay","type":"uint256","internalType":"uint256"}],"outputs":[],"stateMutability":"nonpayable"},{"type":"event","name":"CallExecuted","inputs":[{"name":"id","type":"bytes32","indexed":true,"internalType":"bytes32"},{"name":"index","type":"uint256","indexed":true,"internalType":"uint256"},{"name":"target","type":"address","indexed":false,"internalType":"address"},{"name":"value","type":"uint256","indexed":false,"internalType":"uint256"},{"name":"data","type":"bytes","indexed":false,"internalType":"bytes"}],"anonymous":false},{"type":"event","name":"CallSalt","inputs":[{"name":"id","type":"bytes32","indexed":true,"internalType":"bytes32"},{"name":"salt","type":"bytes32","indexed":false,"internalType":"bytes32"}],"anonymous":false},{"type":"event","name":"CallScheduled","inputs":[{"name":"id","type":"bytes32","indexed":true,"internalType":"bytes32"},{"name":"index","type":"uint256","indexed":true,"internalType":"uint256"},{"name":"target","type":"address","indexed":false,"internalType":"address"},{"name":"value","type":"uint256","indexed":false,"internalType":"uint256"},{"name":"data","type":"bytes","indexed":false,"internalType":"bytes"},{"name":"predecessor","type":"bytes32","indexed":false,"internalType":"bytes32"},{"name":"delay","type":"uint256","indexed":false,"internalType":"uint256"}],"anonymous":false},{"type":"event","name":"Cancelled","inputs":[{"name":"id","type":"bytes32","indexed":true,"internalType":"bytes32"}],"anonymous":false},{"type":"event","name":"MinDelayChange","inputs":[{"name":"oldDuration","type":"uint256","indexed":false,"internalType":"uint256"},{"name":"newDuration","type":"uint256","indexed":false,"internalType":"uint256"}],"anonymous":false},{"type":"event","name":"RoleAdminChanged","inputs":[{"name":"role","type":"bytes32","indexed":true,"internalType":"bytes32"},{"name":"previousAdminRole","type":"bytes32","indexed":true,"internalType":"bytes32"},{"name":"newAdminRole","type":"bytes32","indexed":true,"internalType":"bytes32"}],"anonymous":false},{"type":"event","name":"RoleGranted","inputs":[{"name":"role","type":"bytes32","indexed":true,"internalType":"bytes32"},{"name":"account","type":"address","indexed":true,"internalType":"address"},{"name":"sender","type":"address","indexed":true,"internalType":"address"}],"anonymous":false},{"type":"event","name":"RoleRevoked","inputs":[{"name":"role","type":"bytes32","indexed":true,"internalType":"bytes32"},{"name":"account","type":"address","indexed":true,"internalType":"address"},{"name":"sender","type":"address","indexed":true,"internalType":"address"}],"anonymous":false},{"type":"error","name":"AccessControlBadConfirmation","inputs":[]},{"type":"error","name":"AccessControlUnauthorizedAccount","inputs":[{"name":"account","type":"address","internalType":"address"},{"name":"neededRole","type":"bytes32","internalType":"bytes32"}]},{"type":"error","name":"FailedCall","inputs":[]},{"type":"error","name":"TimelockInsufficientDelay","inputs":[{"name":"delay","type":"uint256","internalType":"uint256"},{"name":"minDelay","type":"uint256","internalType":"uint256"}]},{"type":"error","name":"TimelockInvalidOperationLength","inputs":[{"name":"targets","type":"uint256","internalType":"uint256"},{"name":"payloads","type":"uint256","internalType":"uint256"},{"name":"values","type":"uint256","internalType":"uint256"}]},{"type":"error","name":"TimelockUnauthorizedCaller","inputs":[{"name":"caller","type":"address","internalType":"address"}]},{"type":"error","name":"TimelockUnexecutedPredecessor","inputs":[{"name":"predecessorId","type":"bytes32","internalType":"bytes32"}]},{"type":"error","name":"TimelockUnexpectedOperationState","inputs":[{"name":"operationId","type":"bytes32","internalType":"bytes32"},{"name":"expectedStates","type":"bytes32","internalType":"bytes32"}]}],"bytecode":{"object":"0x60806040523480156200001157600080fd5b5060405162001f0f38038062001f0f833981016040819052620000349162000337565b8383838362000045600030620001a5565b506001600160a01b03811615620000655762000063600082620001a5565b505b60005b83518110156200010557620000c07fb09aa5aeb3702cfd50b6b62bc4532604938f21248a27a1d5ca736082b6819cc1858381518110620000ac57620000ac620003be565b6020026020010151620001a560201b60201c565b50620000fb7ffd643c72710c63c0180259aba6b2d05451e3591a24e58b62239378085726f783858381518110620000ac57620000ac620003be565b5060010162000068565b5060005b825181101562000157576200014d7fd8aa0f3194971a2a116679f7c2090f6939c8d4e01a2a8d7e41d55e5351469e63848381518110620000ac57620000ac620003be565b5060010162000109565b5060028490556040805160008152602081018690527f11c24f4ead16507c69ac467fbd5e4eed5fb5c699626d2cc6d66421df253886d5910160405180910390a15050505050505050620003d4565b6000828152602081815260408083206001600160a01b038516845290915281205460ff166200024a576000838152602081815260408083206001600160a01b03861684529091529020805460ff19166001179055620002013390565b6001600160a01b0316826001600160a01b0316847f2f8788117e7eff1d82e926ec794901d17c78024a50270940304540a733656f0d60405160405180910390a45060016200024e565b5060005b92915050565b634e487b7160e01b600052604160045260246000fd5b80516001600160a01b03811681146200028257600080fd5b919050565b600082601f8301126200029957600080fd5b815160206001600160401b0380831115620002b857620002b862000254565b8260051b604051601f19603f83011681018181108482111715620002e057620002e062000254565b60405293845260208187018101949081019250878511156200030157600080fd5b6020870191505b848210156200032c576200031c826200026a565b8352918301919083019062000308565b979650505050505050565b600080600080608085870312156200034e57600080fd5b845160208601519094506001600160401b03808211156200036e57600080fd5b6200037c8883890162000287565b945060408701519150808211156200039357600080fd5b50620003a28782880162000287565b925050620003b3606086016200026a565b905092959194509250565b634e487b7160e01b600052603260045260246000fd5b611b2b80620003e46000396000f3fe6080604052600436106101bb5760003560e01c80638065657f116100ec578063bc197c811161008a578063d547741f11610064578063d547741f1461058e578063e38335e5146105ae578063f23a6e61146105c1578063f27a0c92146105ed57600080fd5b8063bc197c8114610515578063c4d252f514610541578063d45c44351461056157600080fd5b806391d14854116100c657806391d1485414610468578063a217fddf146104ac578063b08e51c0146104c1578063b1c5f427146104f557600080fd5b80638065657f146103f45780638f2a0bb0146104145780638f61f4f51461043457600080fd5b80632ab0f5291161015957806336568abe1161013357806336568abe14610367578063584b153e1461038757806364d62353146103a75780637958004c146103c757600080fd5b80632ab0f529146103075780632f2ff15d1461032757806331d507501461034757600080fd5b8063134008d311610195578063134008d31461026057806313bc9f2014610273578063150b7a0214610293578063248a9ca3146102d757600080fd5b806301d5062a146101c757806301ffc9a7146101e957806307bd02651461021e57600080fd5b366101c257005b600080fd5b3480156101d357600080fd5b506101e76101e2366004611285565b610602565b005b3480156101f557600080fd5b506102096102043660046112fa565b6106d8565b60405190151581526020015b60405180910390f35b34801561022a57600080fd5b506102527fd8aa0f3194971a2a116679f7c2090f6939c8d4e01a2a8d7e41d55e5351469e6381565b604051908152602001610215565b6101e761026e366004611324565b6106e9565b34801561027f57600080fd5b5061020961028e366004611390565b6107e1565b34801561029f57600080fd5b506102be6102ae366004611460565b630a85bd0160e11b949350505050565b6040516001600160e01b03199091168152602001610215565b3480156102e357600080fd5b506102526102f2366004611390565b60009081526020819052604090206001015490565b34801561031357600080fd5b50610209610322366004611390565b610807565b34801561033357600080fd5b506101e76103423660046114c8565b610810565b34801561035357600080fd5b50610209610362366004611390565b61083b565b34801561037357600080fd5b506101e76103823660046114c8565b610860565b34801561039357600080fd5b506102096103a2366004611390565b610898565b3480156103b357600080fd5b506101e76103c2366004611390565b6108de565b3480156103d357600080fd5b506103e76103e2366004611390565b610951565b604051610215919061150a565b34801561040057600080fd5b5061025261040f366004611324565b61099c565b34801561042057600080fd5b506101e761042f366004611577565b6109db565b34801561044057600080fd5b506102527fb09aa5aeb3702cfd50b6b62bc4532604938f21248a27a1d5ca736082b6819cc181565b34801561047457600080fd5b506102096104833660046114c8565b6000918252602082815260408084206001600160a01b0393909316845291905290205460ff1690565b3480156104b857600080fd5b50610252600081565b3480156104cd57600080fd5b506102527ffd643c72710c63c0180259aba6b2d05451e3591a24e58b62239378085726f78381565b34801561050157600080fd5b50610252610510366004611629565b610b69565b34801561052157600080fd5b506102be610530366004611752565b63bc197c8160e01b95945050505050565b34801561054d57600080fd5b506101e761055c366004611390565b610bae565b34801561056d57600080fd5b5061025261057c366004611390565b60009081526001602052604090205490565b34801561059a57600080fd5b506101e76105a93660046114c8565b610c59565b6101e76105bc366004611629565b610c7e565b3480156105cd57600080fd5b506102be6105dc3660046117fc565b63f23a6e6160e01b95945050505050565b3480156105f957600080fd5b50600254610252565b7fb09aa5aeb3702cfd50b6b62bc4532604938f21248a27a1d5ca736082b6819cc161062c81610e48565b600061063c89898989898961099c565b90506106488184610e55565b6000817f4cf4410cc57040e44862ef0f45f3dd5a5e02db8eb8add648d4b0e236f1d07dca8b8b8b8b8b8a6040516106849695949392919061188a565b60405180910390a383156106cd57807f20fda5fd27a1ea7bf5b9567f143ac5470bb059374a27e8f67cb44f946f6d0387856040516106c491815260200190565b60405180910390a25b505050505050505050565b60006106e382610ee9565b92915050565b600080527fdae2aa361dfd1ca020a396615627d436107c35eff9fe7738a3512819782d70696020527f5ba6852781629bcdcd4bdaa6de76d786f1c64b16acdac474e55bebc0ea157951547fd8aa0f3194971a2a116679f7c2090f6939c8d4e01a2a8d7e41d55e5351469e639060ff16610766576107668133610f0e565b600061077688888888888861099c565b90506107828185610f65565b61078e88888888610fb3565b6000817fc2617efa69bab66782fa219543714338489c4e9e178271560a91b82c3f612b588a8a8a8a6040516107c694939291906118c8565b60405180910390a36107d78161102b565b5050505050505050565b600060025b6107ef83610951565b6003811115610800576108006114f4565b1492915050565b600060036107e6565b60008281526020819052604090206001015461082b81610e48565b6108358383611057565b50505050565b60008061084783610951565b6003811115610858576108586114f4565b141592915050565b6001600160a01b03811633146108895760405163334bd91960e11b815260040160405180910390fd5b6108938282611101565b505050565b6000806108a483610951565b905060018160038111156108ba576108ba6114f4565b14806108d7575060028160038111156108d5576108d56114f4565b145b9392505050565b3330811461090f5760405163e2850c5960e01b81526001600160a01b03821660048201526024015b60405180910390fd5b60025460408051918252602082018490527f11c24f4ead16507c69ac467fbd5e4eed5fb5c699626d2cc6d66421df253886d5910160405180910390a150600255565b600081815260016020526040812054806000036109715750600092915050565b600181036109825750600392915050565b428111156109935750600192915050565b50600292915050565b60008686868686866040516020016109b99695949392919061188a565b6040516020818303038152906040528051906020012090509695505050505050565b7fb09aa5aeb3702cfd50b6b62bc4532604938f21248a27a1d5ca736082b6819cc1610a0581610e48565b8887141580610a145750888514155b15610a46576040516001624fcdef60e01b03198152600481018a90526024810186905260448101889052606401610906565b6000610a588b8b8b8b8b8b8b8b610b69565b9050610a648184610e55565b60005b8a811015610b1a5780827f4cf4410cc57040e44862ef0f45f3dd5a5e02db8eb8add648d4b0e236f1d07dca8e8e85818110610aa457610aa46118fb565b9050602002016020810190610ab99190611911565b8d8d86818110610acb57610acb6118fb565b905060200201358c8c87818110610ae457610ae46118fb565b9050602002810190610af6919061192c565b8c8b604051610b0a9695949392919061188a565b60405180910390a3600101610a67565b508315610b5c57807f20fda5fd27a1ea7bf5b9567f143ac5470bb059374a27e8f67cb44f946f6d038785604051610b5391815260200190565b60405180910390a25b5050505050505050505050565b60008888888888888888604051602001610b8a989796959493929190611a0a565b60405160208183030381529060405280519060200120905098975050505050505050565b7ffd643c72710c63c0180259aba6b2d05451e3591a24e58b62239378085726f783610bd881610e48565b610be182610898565b610c1d5781610bf06002611184565b610bfa6001611184565b604051635ead8eb560e01b81526004810193909352176024820152604401610906565b6000828152600160205260408082208290555183917fbaa1eb22f2a492ba1a5fea61b8df4d27c6c8b5f3971e63bb58fa14ff72eedb7091a25050565b600082815260208190526040902060010154610c7481610e48565b6108358383611101565b600080527fdae2aa361dfd1ca020a396615627d436107c35eff9fe7738a3512819782d70696020527f5ba6852781629bcdcd4bdaa6de76d786f1c64b16acdac474e55bebc0ea157951547fd8aa0f3194971a2a116679f7c2090f6939c8d4e01a2a8d7e41d55e5351469e639060ff16610cfb57610cfb8133610f0e565b8786141580610d0a5750878414155b15610d3c576040516001624fcdef60e01b03198152600481018990526024810185905260448101879052606401610906565b6000610d4e8a8a8a8a8a8a8a8a610b69565b9050610d5a8185610f65565b60005b89811015610e325760008b8b83818110610d7957610d796118fb565b9050602002016020810190610d8e9190611911565b905060008a8a84818110610da457610da46118fb565b9050602002013590503660008a8a86818110610dc257610dc26118fb565b9050602002810190610dd4919061192c565b91509150610de484848484610fb3565b84867fc2617efa69bab66782fa219543714338489c4e9e178271560a91b82c3f612b5886868686604051610e1b94939291906118c8565b60405180910390a350505050806001019050610d5d565b50610e3c8161102b565b50505050505050505050565b610e528133610f0e565b50565b610e5e8261083b565b15610e905781610e6e6000611184565b604051635ead8eb560e01b815260048101929092526024820152604401610906565b6000610e9b60025490565b905080821015610ec857604051635433660960e01b81526004810183905260248101829052604401610906565b610ed28242611ac4565b600093845260016020526040909320929092555050565b60006001600160e01b03198216630271189760e51b14806106e357506106e3826111a7565b6000828152602081815260408083206001600160a01b038516845290915290205460ff16610f615760405163e2517d3f60e01b81526001600160a01b038216600482015260248101839052604401610906565b5050565b610f6e826107e1565b610f7d5781610e6e6002611184565b8015801590610f925750610f9081610807565b155b15610f615760405163121534c360e31b815260048101829052602401610906565b600080856001600160a01b0316858585604051610fd1929190611ae5565b60006040518083038185875af1925050503d806000811461100e576040519150601f19603f3d011682016040523d82523d6000602084013e611013565b606091505b509150915061102282826111dc565b50505050505050565b611034816107e1565b6110435780610e6e6002611184565b600090815260016020819052604090912055565b6000828152602081815260408083206001600160a01b038516845290915281205460ff166110f9576000838152602081815260408083206001600160a01b03861684529091529020805460ff191660011790556110b13390565b6001600160a01b0316826001600160a01b0316847f2f8788117e7eff1d82e926ec794901d17c78024a50270940304540a733656f0d60405160405180910390a45060016106e3565b5060006106e3565b6000828152602081815260408083206001600160a01b038516845290915281205460ff16156110f9576000838152602081815260408083206001600160a01b0386168085529252808320805460ff1916905551339286917ff6391f5c32d9c69d2a47ea670b442974b53935d1edc7fd64eb21e047a839171b9190a45060016106e3565b6000816003811115611198576111986114f4565b600160ff919091161b92915050565b60006001600160e01b03198216637965db0b60e01b14806106e357506301ffc9a760e01b6001600160e01b03198316146106e3565b6060826111f1576111ec826111f8565b6106e3565b50806106e3565b80511561120757805160208201fd5b60405163d6bda27560e01b815260040160405180910390fd5b80356001600160a01b038116811461123757600080fd5b919050565b60008083601f84011261124e57600080fd5b50813567ffffffffffffffff81111561126657600080fd5b60208301915083602082850101111561127e57600080fd5b9250929050565b600080600080600080600060c0888a0312156112a057600080fd5b6112a988611220565b965060208801359550604088013567ffffffffffffffff8111156112cc57600080fd5b6112d88a828b0161123c565b989b979a50986060810135976080820135975060a09091013595509350505050565b60006020828403121561130c57600080fd5b81356001600160e01b0319811681146108d757600080fd5b60008060008060008060a0878903121561133d57600080fd5b61134687611220565b955060208701359450604087013567ffffffffffffffff81111561136957600080fd5b61137589828a0161123c565b979a9699509760608101359660809091013595509350505050565b6000602082840312156113a257600080fd5b5035919050565b634e487b7160e01b600052604160045260246000fd5b604051601f8201601f1916810167ffffffffffffffff811182821017156113e8576113e86113a9565b604052919050565b600082601f83011261140157600080fd5b813567ffffffffffffffff81111561141b5761141b6113a9565b61142e601f8201601f19166020016113bf565b81815284602083860101111561144357600080fd5b816020850160208301376000918101602001919091529392505050565b6000806000806080858703121561147657600080fd5b61147f85611220565b935061148d60208601611220565b925060408501359150606085013567ffffffffffffffff8111156114b057600080fd5b6114bc878288016113f0565b91505092959194509250565b600080604083850312156114db57600080fd5b823591506114eb60208401611220565b90509250929050565b634e487b7160e01b600052602160045260246000fd5b602081016004831061152c57634e487b7160e01b600052602160045260246000fd5b91905290565b60008083601f84011261154457600080fd5b50813567ffffffffffffffff81111561155c57600080fd5b6020830191508360208260051b850101111561127e57600080fd5b600080600080600080600080600060c08a8c03121561159557600080fd5b893567ffffffffffffffff808211156115ad57600080fd5b6115b98d838e01611532565b909b50995060208c01359150808211156115d257600080fd5b6115de8d838e01611532565b909950975060408c01359150808211156115f757600080fd5b506116048c828d01611532565b9a9d999c50979a969997986060880135976080810135975060a0013595509350505050565b60008060008060008060008060a0898b03121561164557600080fd5b883567ffffffffffffffff8082111561165d57600080fd5b6116698c838d01611532565b909a50985060208b013591508082111561168257600080fd5b61168e8c838d01611532565b909850965060408b01359150808211156116a757600080fd5b506116b48b828c01611532565b999c989b509699959896976060870135966080013595509350505050565b600082601f8301126116e357600080fd5b8135602067ffffffffffffffff8211156116ff576116ff6113a9565b8160051b61170e8282016113bf565b928352848101820192828101908785111561172857600080fd5b83870192505b848310156117475782358252918301919083019061172e565b979650505050505050565b600080600080600060a0868803121561176a57600080fd5b61177386611220565b945061178160208701611220565b9350604086013567ffffffffffffffff8082111561179e57600080fd5b6117aa89838a016116d2565b945060608801359150808211156117c057600080fd5b6117cc89838a016116d2565b935060808801359150808211156117e257600080fd5b506117ef888289016113f0565b9150509295509295909350565b600080600080600060a0868803121561181457600080fd5b61181d86611220565b945061182b60208701611220565b93506040860135925060608601359150608086013567ffffffffffffffff81111561185557600080fd5b6117ef888289016113f0565b81835281816020850137506000828201602090810191909152601f909101601f19169091010190565b6001600160a01b038716815285602082015260a0604082015260006118b360a083018688611861565b60608301949094525060800152949350505050565b6001600160a01b03851681528360208201526060604082015260006118f1606083018486611861565b9695505050505050565b634e487b7160e01b600052603260045260246000fd5b60006020828403121561192357600080fd5b6108d782611220565b6000808335601e1984360301811261194357600080fd5b83018035915067ffffffffffffffff82111561195e57600080fd5b60200191503681900382131561127e57600080fd5b6000838385526020808601955060208560051b8301018460005b878110156119fd57848303601f19018952813536889003601e190181126119b357600080fd5b8701848101903567ffffffffffffffff8111156119cf57600080fd5b8036038213156119de57600080fd5b6119e9858284611861565b9a86019a945050509083019060010161198d565b5090979650505050505050565b60a0808252810188905260008960c08301825b8b811015611a4b576001600160a01b03611a3684611220565b16825260209283019290910190600101611a1d565b5083810360208501528881527f07ffffffffffffffffffffffffffffffffffffffffffffffffffffffffffffff891115611a8457600080fd5b8860051b9150818a60208301370182810360209081016040850152611aac9082018789611973565b60608401959095525050608001529695505050505050565b808201808211156106e357634e487b7160e01b600052601160045260246000fd5b818382376000910190815291905056fea2646970667358221220ac436de22dc62519d03d4d0cadc8bb7cd8598835f447690a2ae64a3135d27c3764736f6c63430008180033","linkReferences":{}},"methodIdentifiers":{"CANCELLER_ROLE()":"b08e51c0","DEFAULT_ADMIN_ROLE()":"a217fddf","EXECUTOR_ROLE()":"07bd0265","PROPOSER_ROLE()":"8f61f4f5","cancel(bytes32)":"c4d252f5","execute(address,uint256,bytes,bytes32,bytes32)":"134008d3","executeBatch(address[],uint256[],bytes[],bytes32,bytes32)":"e38335e5","getMinDelay()":"f27a0c92","getOperationState(bytes32)":"7958004c","getRoleAdmin(bytes32)":"248a9ca3","getTimestamp(bytes32)":"d45c4435","grantRole(bytes32,address)":"2f2ff15d","hasRole(bytes32,address)":"91d14854","hashOperation(address,uint256,bytes,bytes32,bytes32)":"8065657f","hashOperationBatch(address[],uint256[],bytes[],bytes32,bytes32)":"b1c5f427","isOperation(bytes32)":"31d50750","isOperationDone(bytes32)":"2ab0f529","isOperationPending(bytes32)":"584b153e","isOperationReady(bytes32)":"13bc9f20","onERC1155BatchReceived(address,address,uint256[],uint256[],bytes)":"bc197c81","onERC1155Received(address,address,uint256,uint256,bytes)":"f23a6e61","onERC721Received(address,address,uint256,bytes)":"150b7a02","renounceRole(bytes32,address)":"36568abe","revokeRole(bytes32,address)":"d547741f","schedule(address,uint256,bytes,bytes32,bytes32,uint256)":"01d5062a","scheduleBatch(address[],uint256[],bytes[],bytes32,bytes32,uint256)":"8f2a0bb0","supportsInterface(bytes4)":"01ffc9a7","updateDelay(uint256)":"64d62353"},"id":1}