{"abi":[{"type":"function","name":"createAccount","inputs":[{"name":"implementation","type":"address","internalType":"address"},{"name":"salt","type":"bytes32","internalType":"bytes32"},{"name":"chainId","type":"uint256","internalType":"uint256"},{"name":"tokenContract","type":"address","internalType":"address"},{"name":"tokenId","type":"uint256","internalType":"uint256"}],"outputs":[{"name":"","type":"address","internalType":"address"}],"stateMutability":"nonpayable"}],"bytecode":{"object":"0x608060405234801561001057600080fd5b5061014c806100206000396000f3fe608060405234801561001057600080fd5b506004361061002b5760003560e01c80638a54c52f14610030575b600080fd5b61009061003e3660046100c8565b604080516001600160a01b0396871660208083019190915281830196909652606081019490945291909416608083015260a0808301949094528051808303909401845260c09091019052815191012090565b6040516001600160a01b03909116815260200160405180910390f35b80356001600160a01b03811681146100c357600080fd5b919050565b600080600080600060a086880312156100e057600080fd5b6100e9866100ac565b94506020860135935060408601359250610105606087016100ac565b94979396509194608001359291505056fea264697066735822122065f9ce422c3193b807be1967e7c3804d35b3e2b9ccf0ea6eefc5cb65b296e2fb64736f6c63430008180033","linkReferences":{}},"methodIdentifiers":{"createAccount(address,bytes32,uint256,address,uint256)":"8a54c52f"},"id":68}