{"abi":[{"type":"constructor","inputs":[{"name":"initialOwner","type":"address","internalType":"address"}],"stateMutability":"nonpayable"},{"type":"function","name":"addRecord","inputs":[{"name":"txId","type":"bytes32","internalType":"bytes32"},{"name":"payloadHash","type":"bytes32","internalType":"bytes32"},{"name":"cid","type":"bytes32","internalType":"bytes32"}],"outputs":[],"stateMutability":"nonpayable"},{"type":"function","name":"approveSubmitter","inputs":[{"name":"submitter","type":"address","internalType":"address"}],"outputs":[],"stateMutability":"nonpayable"},{"type":"function","name":"approvedSubmitters","inputs":[{"name":"","type":"address","internalType":"address"}],"outputs":[{"name":"","type":"bool","internalType":"bool"}],"stateMutability":"view"},{"type":"function","name":"getRecord","inputs":[{"name":"txId","type":"bytes32","internalType":"bytes32"}],"outputs":[{"name":"","type":"tuple","internalType":"struct ComplianceRegistry.TravelRuleRecord","components":[{"name":"payloadHash","type":"bytes32","internalType":"bytes32"},{"name":"cid","type":"bytes32","internalType":"bytes32"},{"name":"timestamp","type":"uint256","internalType":"uint256"},{"name":"submitter","type":"address","internalType":"address"}]}],"stateMutability":"view"},{"type":"function","name":"owner","inputs":[],"outputs":[{"name":"","type":"address","internalType":"address"}],"stateMutability":"view"},{"type":"function","name":"records","inputs":[{"name":"","type":"bytes32","internalType":"bytes32"}],"outputs":[{"name":"payloadHash","type":"bytes32","internalType":"bytes32"},{"name":"cid","type":"bytes32","internalType":"bytes32"},{"name":"timestamp","type":"uint256","internalType":"uint256"},{"name":"submitter","type":"address","internalType":"address"}],"stateMutability":"view"},{"type":"function","name":"renounceOwnership","inputs":[],"outputs":[],"stateMutability":"nonpayable"},{"type":"function","name":"transferOwnership","inputs":[{"name":"newOwner","type":"address","internalType":"address"}],"outputs":[],"stateMutability":"nonpayable"},{"type":"event","name":"OwnershipTransferred","inputs":[{"name":"previousOwner","type":"address","indexed":true,"internalType":"address"},{"name":"newOwner","type":"address","indexed":true,"internalType":"address"}],"anonymous":false},{"type":"event","name":"RecordAdded","inputs":[{"name":"txId","type":"bytes32","indexed":true,"internalType":"bytes32"},{"name":"payloadHash","type":"bytes32","indexed":false,"internalType":"bytes32"},{"name":"cid","type":"bytes32","indexed":false,"internalType":"bytes32"}],"anonymous":false},{"type":"event","name":"SubmitterApproved","inputs":[{"name":"submitter","type":"address","indexed":true,"internalType":"address"}],"anonymous":false},{"type":"error","name":"OwnableInvalidOwner","inputs":[{"name":"owner","type":"address","internalType":"address"}]},{"type":"error","name":"OwnableUnauthorizedAccount","inputs":[{"name":"account","type":"address","internalType":"address"}]}],"bytecode":{"object":"0x608060405234801561001057600080fd5b5060405161063538038061063583398101604081905261002f916100be565b806001600160a01b03811661005e57604051631e4fbdf760e01b81526000600482015260240160405180910390fd5b6100678161006e565b50506100ee565b600080546001600160a01b038381166001600160a01b0319831681178455604051919092169283917f8be0079c531659141344cd1fd0a4f28419497f9722a3daafe3b4186f6b6457e09190a35050565b6000602082840312156100d057600080fd5b81516001600160a01b03811681146100e757600080fd5b9392505050565b610538806100fd6000396000f3fe608060405234801561001057600080fd5b50600436106100885760003560e01c80633475784e1161005b5780633475784e146101fd578063715018a6146102105780638da5cb5b14610218578063f2fde38b1461023357600080fd5b806301e647251461008d578063213681cd146100fa5780632392a76f146101b5578063239fb39c146101e8575b600080fd5b6100cc61009b36600461048d565b600160208190526000918252604090912080549181015460028201546003909201549091906001600160a01b031684565b604080519485526020850193909352918301526001600160a01b031660608201526080015b60405180910390f35b61017961010836600461048d565b6040805160808101825260008082526020820181905291810182905260608101919091525060009081526001602081815260409283902083516080810185528154815292810154918301919091526002810154928201929092526003909101546001600160a01b0316606082015290565b6040516100f191908151815260208083015190820152604080830151908201526060918201516001600160a01b03169181019190915260800190565b6101d86101c33660046104a6565b60026020526000908152604090205460ff1681565b60405190151581526020016100f1565b6101fb6101f63660046104a6565b610246565b005b6101fb61020b3660046104d6565b61029a565b6101fb6103b1565b6000546040516001600160a01b0390911681526020016100f1565b6101fb6102413660046104a6565b6103c5565b61024e610403565b6001600160a01b038116600081815260026020526040808220805460ff19166001179055517fdc5c4e4db58972cc846f2cda1c70e3c8a563bb647e47431a914250609c6fbb189190a250565b3360009081526002602052604090205460ff166102fe5760405162461bcd60e51b815260206004820152601660248201527f4e6f7420617070726f766564207375626d69747465720000000000000000000060448201526064015b60405180910390fd5b604080516080810182528381526020808201848152428385019081523360608501908152600089815260018086529087902095518655925192850192909255516002840155516003909201805473ffffffffffffffffffffffffffffffffffffffff19166001600160a01b0390931692909217909155815184815290810183905284917f707ef511c2c3fc1e8e1bc494b6c4d7ac48477074e4c7e500d859ea4571a9f9b8910160405180910390a2505050565b6103b9610403565b6103c36000610430565b565b6103cd610403565b6001600160a01b0381166103f757604051631e4fbdf760e01b8152600060048201526024016102f5565b61040081610430565b50565b6000546001600160a01b031633146103c35760405163118cdaa760e01b81523360048201526024016102f5565b600080546001600160a01b0383811673ffffffffffffffffffffffffffffffffffffffff19831681178455604051919092169283917f8be0079c531659141344cd1fd0a4f28419497f9722a3daafe3b4186f6b6457e09190a35050565b60006020828403121561049f57600080fd5b5035919050565b6000602082840312156104b857600080fd5b81356001600160a01b03811681146104cf57600080fd5b9392505050565b6000806000606084860312156104eb57600080fd5b50508135936020830135935060409092013591905056fea26469706673582212209ff7aeaa8de078f777814e077d489b8c8b05ef628fe438235c97fb9801c94f0b64736f6c63430008180033","linkReferences":{}},"methodIdentifiers":{"addRecord(bytes32,bytes32,bytes32)":"3475784e","approveSubmitter(address)":"239fb39c","approvedSubmitters(address)":"2392a76f","getRecord(bytes32)":"213681cd","owner()":"8da5cb5b","records(bytes32)":"01e64725","renounceOwnership()":"715018a6","transferOwnership(address)":"f2fde38b"},"id":0}