{"abi":[{"type":"constructor","inputs":[],"stateMutability":"nonpayable"},{"type":"function","name":"BURNER_ROLE","inputs":[],"outputs":[{"name":"","type":"bytes32","internalType":"bytes32"}],"stateMutability":"view"},{"type":"function","name":"DEFAULT_ADMIN_ROLE","inputs":[],"outputs":[{"name":"","type":"bytes32","internalType":"bytes32"}],"stateMutability":"view"},{"type":"function","name":"DOMAIN_SEPARATOR","inputs":[],"outputs":[{"name":"","type":"bytes32","internalType":"bytes32"}],"stateMutability":"view"},{"type":"function","name":"GUARDIAN_ROLE","inputs":[],"outputs":[{"name":"","type":"bytes32","internalType":"bytes32"}],"stateMutability":"view"},{"type":"function","name":"MINTER_ROLE","inputs":[],"outputs":[{"name":"","type":"bytes32","internalType":"bytes32"}],"stateMutability":"view"},{"type":"function","name":"TREASURY_ROLE","inputs":[],"outputs":[{"name":"","type":"bytes32","internalType":"bytes32"}],"stateMutability":"view"},{"type":"function","name":"allowance","inputs":[{"name":"owner","type":"address","internalType":"address"},{"name":"spender","type":"address","internalType":"address"}],"outputs":[{"name":"","type":"uint256","internalType":"uint256"}],"stateMutability":"view"},{"type":"function","name":"approve","inputs":[{"name":"spender","type":"address","internalType":"address"},{"name":"value","type":"uint256","internalType":"uint256"}],"outputs":[{"name":"","type":"bool","internalType":"bool"}],"stateMutability":"nonpayable"},{"type":"function","name":"attachTravelRule","inputs":[{"name":"txId","type":"bytes32","internalType":"bytes32"},{"name":"payloadHash","type":"bytes32","internalType":"bytes32"},{"name":"cid","type":"bytes32","internalType":"bytes32"}],"outputs":[],"stateMutability":"nonpayable"},{"type":"function","name":"balanceOf","inputs":[{"name":"account","type":"address","internalType":"address"}],"outputs":[{"name":"","type":"uint256","internalType":"uint256"}],"stateMutability":"view"},{"type":"function","name":"burn","inputs":[{"name":"from","type":"address","internalType":"address"},{"name":"amount","type":"uint256","internalType":"uint256"}],"outputs":[],"stateMutability":"nonpayable"},{"type":"function","name":"burnInEpoch","inputs":[],"outputs":[{"name":"","type":"uint256","internalType":"uint256"}],"stateMutability":"view"},{"type":"function","name":"dailyBurnCap","inputs":[],"outputs":[{"name":"","type":"uint256","internalType":"uint256"}],"stateMutability":"view"},{"type":"function","name":"dailyMintCap","inputs":[],"outputs":[{"name":"","type":"uint256","internalType":"uint256"}],"stateMutability":"view"},{"type":"function","name":"decimals","inputs":[],"outputs":[{"name":"","type":"uint8","internalType":"uint8"}],"stateMutability":"view"},{"type":"function","name":"eip712Domain","inputs":[],"outputs":[{"name":"fields","type":"bytes1","internalType":"bytes1"},{"name":"name","type":"string","internalType":"string"},{"name":"version","type":"string","internalType":"string"},{"name":"chainId","type":"uint256","internalType":"uint256"},{"name":"verifyingContract","type":"address","internalType":"address"},{"name":"salt","type":"bytes32","internalType":"bytes32"},{"name":"extensions","type":"uint256[]","internalType":"uint256[]"}],"stateMutability":"view"},{"type":"function","name":"epochStart","inputs":[],"outputs":[{"name":"","type":"uint48","internalType":"uint48"}],"stateMutability":"view"},{"type":"function","name":"getRoleAdmin","inputs":[{"name":"role","type":"bytes32","internalType":"bytes32"}],"outputs":[{"name":"","type":"bytes32","internalType":"bytes32"}],"stateMutability":"view"},{"type":"function","name":"grantRole","inputs":[{"name":"role","type":"bytes32","internalType":"bytes32"},{"name":"account","type":"address","internalType":"address"}],"outputs":[],"stateMutability":"nonpayable"},{"type":"function","name":"hasRole","inputs":[{"name":"role","type":"bytes32","internalType":"bytes32"},{"name":"account","type":"address","internalType":"address"}],"outputs":[{"name":"","type":"bool","internalType":"bool"}],"stateMutability":"view"},{"type":"function","name":"initialize","inputs":[{"name":"admin","type":"address","internalType":"address"},{"name":"guardian","type":"address","internalType":"address"},{"name":"treasury","type":"address","internalType":"address"},{"name":"porManager","type":"address","internalType":"address"},{"name":"_dailyMintCap","type":"uint256","internalType":"uint256"},{"name":"_dailyBurnCap","type":"uint256","internalType":"uint256"}],"outputs":[],"stateMutability":"nonpayable"},{"type":"function","name":"mint","inputs":[{"name":"to","type":"address","internalType":"address"},{"name":"amount","type":"uint256","internalType":"uint256"},{"name":"proofCid","type":"bytes32","internalType":"bytes32"}],"outputs":[],"stateMutability":"nonpayable"},{"type":"function","name":"mintInEpoch","inputs":[],"outputs":[{"name":"","type":"uint256","internalType":"uint256"}],"stateMutability":"view"},{"type":"function","name":"name","inputs":[],"outputs":[{"name":"","type":"string","internalType":"string"}],"stateMutability":"view"},{"type":"function","name":"nonces","inputs":[{"name":"owner","type":"address","internalType":"address"}],"outputs":[{"name":"","type":"uint256","internalType":"uint256"}],"stateMutability":"view"},{"type":"function","name":"pause","inputs":[],"outputs":[],"stateMutability":"nonpayable"},{"type":"function","name":"paused","inputs":[],"outputs":[{"name":"","type":"bool","internalType":"bool"}],"stateMutability":"view"},{"type":"function","name":"permit","inputs":[{"name":"owner","type":"address","internalType":"address"},{"name":"spender","type":"address","internalType":"address"},{"name":"value","type":"uint256","internalType":"uint256"},{"name":"deadline","type":"uint256","internalType":"uint256"},{"name":"v","type":"uint8","internalType":"uint8"},{"name":"r","type":"bytes32","internalType":"bytes32"},{"name":"s","type":"bytes32","internalType":"bytes32"}],"outputs":[],"stateMutability":"nonpayable"},{"type":"function","name":"por","inputs":[],"outputs":[{"name":"","type":"address","internalType":"contract IPorManager"}],"stateMutability":"view"},{"type":"function","name":"renounceRole","inputs":[{"name":"role","type":"bytes32","internalType":"bytes32"},{"name":"callerConfirmation","type":"address","internalType":"address"}],"outputs":[],"stateMutability":"nonpayable"},{"type":"function","name":"revokeRole","inputs":[{"name":"role","type":"bytes32","internalType":"bytes32"},{"name":"account","type":"address","internalType":"address"}],"outputs":[],"stateMutability":"nonpayable"},{"type":"function","name":"setCaps","inputs":[{"name":"m","type":"uint256","internalType":"uint256"},{"name":"b","type":"uint256","internalType":"uint256"}],"outputs":[],"stateMutability":"nonpayable"},{"type":"function","name":"setPor","inputs":[{"name":"p","type":"address","internalType":"address"}],"outputs":[],"stateMutability":"nonpayable"},{"type":"function","name":"supportsInterface","inputs":[{"name":"interfaceId","type":"bytes4","internalType":"bytes4"}],"outputs":[{"name":"","type":"bool","internalType":"bool"}],"stateMutability":"view"},{"type":"function","name":"symbol","inputs":[],"outputs":[{"name":"","type":"string","internalType":"string"}],"stateMutability":"view"},{"type":"function","name":"totalSupply","inputs":[],"outputs":[{"name":"","type":"uint256","internalType":"uint256"}],"stateMutability":"view"},{"type":"function","name":"transfer","inputs":[{"name":"to","type":"address","internalType":"address"},{"name":"value","type":"uint256","internalType":"uint256"}],"outputs":[{"name":"","type":"bool","internalType":"bool"}],"stateMutability":"nonpayable"},{"type":"function","name":"transferFrom","inputs":[{"name":"from","type":"address","internalType":"address"},{"name":"to","type":"address","internalType":"address"},{"name":"value","type":"uint256","internalType":"uint256"}],"outputs":[{"name":"","type":"bool","internalType":"bool"}],"stateMutability":"nonpayable"},{"type":"function","name":"unpause","inputs":[],"outputs":[],"stateMutability":"nonpayable"},{"type":"event","name":"Approval","inputs":[{"name":"owner","type":"address","indexed":true,"internalType":"address"},{"name":"spender","type":"address","indexed":true,"internalType":"address"},{"name":"value","type":"uint256","indexed":false,"internalType":"uint256"}],"anonymous":false},{"type":"event","name":"Burned","inputs":[{"name":"from","type":"address","indexed":true,"internalType":"address"},{"name":"amount","type":"uint256","indexed":false,"internalType":"uint256"}],"anonymous":false},{"type":"event","name":"CapsUpdated","inputs":[{"name":"mintCap","type":"uint256","indexed":false,"internalType":"uint256"},{"name":"burnCap","type":"uint256","indexed":false,"internalType":"uint256"}],"anonymous":false},{"type":"event","name":"EIP712DomainChanged","inputs":[],"anonymous":false},{"type":"event","name":"Minted","inputs":[{"name":"to","type":"address","indexed":true,"internalType":"address"},{"name":"amount","type":"uint256","indexed":false,"internalType":"uint256"},{"name":"proofCid","type":"bytes32","indexed":false,"internalType":"bytes32"}],"anonymous":false},{"type":"event","name":"Paused","inputs":[{"name":"account","type":"address","indexed":false,"internalType":"address"}],"anonymous":false},{"type":"event","name":"PorManagerUpdated","inputs":[{"name":"por","type":"address","indexed":true,"internalType":"address"}],"anonymous":false},{"type":"event","name":"RoleAdminChanged","inputs":[{"name":"role","type":"bytes32","indexed":true,"internalType":"bytes32"},{"name":"previousAdminRole","type":"bytes32","indexed":true,"internalType":"bytes32"},{"name":"newAdminRole","type":"bytes32","indexed":true,"internalType":"bytes32"}],"anonymous":false},{"type":"event","name":"RoleGranted","inputs":[{"name":"role","type":"bytes32","indexed":true,"internalType":"bytes32"},{"name":"account","type":"address","indexed":true,"internalType":"address"},{"name":"sender","type":"address","indexed":true,"internalType":"address"}],"anonymous":false},{"type":"event","name":"RoleRevoked","inputs":[{"name":"role","type":"bytes32","indexed":true,"internalType":"bytes32"},{"name":"account","type":"address","indexed":true,"internalType":"address"},{"name":"sender","type":"address","indexed":true,"internalType":"address"}],"anonymous":false},{"type":"event","name":"Transfer","inputs":[{"name":"from","type":"address","indexed":true,"internalType":"address"},{"name":"to","type":"address","indexed":true,"internalType":"address"},{"name":"value","type":"uint256","indexed":false,"internalType":"uint256"}],"anonymous":false},{"type":"event","name":"TravelRuleAttached","inputs":[{"name":"txId","type":"bytes32","indexed":true,"internalType":"bytes32"},{"name":"payloadHash","type":"bytes32","indexed":false,"internalType":"bytes32"},{"name":"cid","type":"bytes32","indexed":false,"internalType":"bytes32"}],"anonymous":false},{"type":"event","name":"Unpaused","inputs":[{"name":"account","type":"address","indexed":false,"internalType":"address"}],"anonymous":false},{"type":"error","name":"AccessControlBadConfirmation","inputs":[]},{"type":"error","name":"AccessControlUnauthorizedAccount","inputs":[{"name":"account","type":"address","internalType":"address"},{"name":"neededRole","type":"bytes32","internalType":"bytes32"}]},{"type":"error","name":"ECDSAInvalidSignature","inputs":[]},{"type":"error","name":"ECDSAInvalidSignatureLength","inputs":[{"name":"length","type":"uint256","internalType":"uint256"}]},{"type":"error","name":"ECDSAInvalidSignatureS","inputs":[{"name":"s","type":"bytes32","internalType":"bytes32"}]},{"type":"error","name":"ERC20InsufficientAllowance","inputs":[{"name":"spender","type":"address","internalType":"address"},{"name":"allowance","type":"uint256","internalType":"uint256"},{"name":"needed","type":"uint256","internalType":"uint256"}]},{"type":"error","name":"ERC20InsufficientBalance","inputs":[{"name":"sender","type":"address","internalType":"address"},{"name":"balance","type":"uint256","internalType":"uint256"},{"name":"needed","type":"uint256","internalType":"uint256"}]},{"type":"error","name":"ERC20InvalidApprover","inputs":[{"name":"approver","type":"address","internalType":"address"}]},{"type":"error","name":"ERC20InvalidReceiver","inputs":[{"name":"receiver","type":"address","internalType":"address"}]},{"type":"error","name":"ERC20InvalidSender","inputs":[{"name":"sender","type":"address","internalType":"address"}]},{"type":"error","name":"ERC20InvalidSpender","inputs":[{"name":"spender","type":"address","internalType":"address"}]},{"type":"error","name":"ERC2612ExpiredSignature","inputs":[{"name":"deadline","type":"uint256","internalType":"uint256"}]},{"type":"error","name":"ERC2612InvalidSigner","inputs":[{"name":"signer","type":"address","internalType":"address"},{"name":"owner","type":"address","internalType":"address"}]},{"type":"error","name":"EnforcedPause","inputs":[]},{"type":"error","name":"ExpectedPause","inputs":[]},{"type":"error","name":"InvalidAccountNonce","inputs":[{"name":"account","type":"address","internalType":"address"},{"name":"currentNonce","type":"uint256","internalType":"uint256"}]},{"type":"error","name":"InvalidShortString","inputs":[]},{"type":"error","name":"StringTooLong","inputs":[{"name":"str","type":"string","internalType":"string"}]}],"bytecode":{"object":"0x6101606040523480156200001257600080fd5b506040518060400160405280600b81526020016a155b9e5adbdc9b881554d160aa1b81525080604051806040016040528060018152602001603160f81b8152506040518060400160405280600b81526020016a155b9e5adbdc9b881554d160aa1b815250604051806040016040528060048152602001631d5554d160e21b8152508160039081620000a4919062000414565b506004620000b3828262000414565b50620000c59150839050600562000236565b61012052620000d681600662000236565b61014052815160208084019190912060e052815190820120610100524660a0526200016460e05161010051604080517f8b73c3c69bb8fe3d512ecc4cf759cc79239f7b179b0ffacaa9a75d522b39400f60208201529081019290925260608201524660808201523060a082015260009060c00160405160208183030381529060405280519060200120905090565b60805250503060c052506200017b6000336200026f565b50620001a87f55435dd261a4b9b3364963f7738a7a662ad9c84396d64be3365284bb7f0a5041336200026f565b50620001d57fe1dcbdb91df27212a29bc27177c840cf2f819ecf2187432e1fac86c2dd5dfca9336200026f565b50620002027f9f2df0fed2c77648de5860a4cc508cd0818c85b8b8a1ab4ceeef8d981c8956a6336200026f565b506200022f7f3c11d16cbaffd01df69ce1c404f6340ee057498f5f00246190ea54220576a848336200026f565b5062000556565b600060208351101562000256576200024e8362000321565b905062000269565b8162000263848262000414565b5060ff90505b92915050565b60008281526009602090815260408083206001600160a01b038516845290915281205460ff16620003185760008381526009602090815260408083206001600160a01b03861684529091529020805460ff19166001179055620002cf3390565b6001600160a01b0316826001600160a01b0316847f2f8788117e7eff1d82e926ec794901d17c78024a50270940304540a733656f0d60405160405180910390a450600162000269565b50600062000269565b600080829050601f8151111562000358578260405163305a27a960e01b81526004016200034f9190620004e0565b60405180910390fd5b8051620003658262000531565b179392505050565b634e487b7160e01b600052604160045260246000fd5b600181811c908216806200039857607f821691505b602082108103620003b957634e487b7160e01b600052602260045260246000fd5b50919050565b601f8211156200040f576000816000526020600020601f850160051c81016020861015620003ea5750805b601f850160051c820191505b818110156200040b57828155600101620003f6565b5050505b505050565b81516001600160401b038111156200043057620004306200036d565b620004488162000441845462000383565b84620003bf565b602080601f831160018114620004805760008415620004675750858301515b600019600386901b1c1916600185901b1785556200040b565b600085815260208120601f198616915b82811015620004b15788860151825594840194600190910190840162000490565b5085821015620004d05787850151600019600388901b60f8161c191681555b5050505050600190811b01905550565b60006020808352835180602085015260005b818110156200051057858101830151858201604001528201620004f2565b506000604082860101526040601f19601f8301168501019250505092915050565b80516020808301519190811015620003b95760001960209190910360031b1b16919050565b60805160a05160c05160e051610100516101205161014051611e57620005b16000396000611422015260006113f5015260006112870152600061125f015260006111ba015260006111e40152600061120e0152611e576000f3fe608060405234801561001057600080fd5b506004361061023d5760003560e01c80635c2d0efd1161013b57806395d89b41116100b8578063d505accf1161007c578063d505accf14610533578063d539139314610546578063d547741f1461056d578063d7c41c7914610580578063dd62ed3e1461059357600080fd5b806395d89b41146104d65780639dc29fac146104de578063a217fddf146104f1578063a9059cbb146104f9578063d11a57ec1461050c57600080fd5b80638456cb59116100ff5780638456cb591461046857806384b0196e146104705780638cb7f9101461048b57806391d14854146104945780639460e3cf146104cd57600080fd5b80635c2d0efd146104055780635c975abb1461040e578063652c95701461041957806370a082311461042c5780637ecebe001461045557600080fd5b806323b872dd116101c95780632f2ff15d1161018d5780632f2ff15d146103c0578063313ce567146103d35780633644e515146103e257806336568abe146103ea5780633f4ba83a146103fd57600080fd5b806323b872dd14610333578063248a9ca31461034657806324ea54f414610369578063282c51f3146103905780632832bcb5146103b757600080fd5b806314c3635e1161021057806314c3635e146102bd57806315e5a1e5146102d257806318160ddd146102fb5780631e458bee1461030d578063212bf3161461032057600080fd5b806301ffc9a71461024257806306fdde031461026a57806308ae13bc1461027f578063095ea7b3146102aa575b600080fd5b6102556102503660046119ea565b6105cc565b60405190151581526020015b60405180910390f35b610272610603565b6040516102619190611a61565b600a54610292906001600160a01b031681565b6040516001600160a01b039091168152602001610261565b6102556102b8366004611a90565b610695565b6102d06102cb366004611aba565b6106ad565b005b600f546102e49065ffffffffffff1681565b60405165ffffffffffff9091168152602001610261565b6002545b604051908152602001610261565b6102d061031b366004611ad5565b610759565b6102d061032e366004611b08565b610909565b610255610341366004611b2a565b61097b565b6102ff610354366004611b66565b60009081526009602052604090206001015490565b6102ff7f55435dd261a4b9b3364963f7738a7a662ad9c84396d64be3365284bb7f0a504181565b6102ff7f3c11d16cbaffd01df69ce1c404f6340ee057498f5f00246190ea54220576a84881565b6102ff600b5481565b6102d06103ce366004611b7f565b61099f565b60405160128152602001610261565b6102ff6109ca565b6102d06103f8366004611b7f565b6109d9565b6102d0610a11565b6102ff600e5481565b60085460ff16610255565b6102d0610427366004611bab565b610a46565b6102ff61043a366004611aba565b6001600160a01b031660009081526020819052604090205490565b6102ff610463366004611aba565b610aa8565b6102d0610ac6565b610478610af8565b6040516102619796959493929190611bd7565b6102ff600d5481565b6102556104a2366004611b7f565b60009182526009602090815260408084206001600160a01b0393909316845291905290205460ff1690565b6102ff600c5481565b610272610b3e565b6102d06104ec366004611a90565b610b4d565b6102ff600081565b610255610507366004611a90565b610cf5565b6102ff7fe1dcbdb91df27212a29bc27177c840cf2f819ecf2187432e1fac86c2dd5dfca981565b6102d0610541366004611c70565b610d03565b6102ff7f9f2df0fed2c77648de5860a4cc508cd0818c85b8b8a1ab4ceeef8d981c8956a681565b6102d061057b366004611b7f565b610e3d565b6102d061058e366004611ce3565b610e62565b6102ff6105a1366004611d49565b6001600160a01b03918216600090815260016020908152604080832093909416825291909152205490565b60006001600160e01b03198216637965db0b60e01b14806105fd57506301ffc9a760e01b6001600160e01b03198316145b92915050565b60606003805461061290611d73565b80601f016020809104026020016040519081016040528092919081815260200182805461063e90611d73565b801561068b5780601f106106605761010080835404028352916020019161068b565b820191906000526020600020905b81548152906001019060200180831161066e57829003601f168201915b5050505050905090565b6000336106a3818585610f6c565b5060019392505050565b7f55435dd261a4b9b3364963f7738a7a662ad9c84396d64be3365284bb7f0a504160005260096020527f661ce53d22a42220ec662bf02bd9df455f1cc3a66aa9418ae6e32d88d39b461d5461070181610f79565b600a805473ffffffffffffffffffffffffffffffffffffffff19166001600160a01b0384169081179091556040517f23056a5097805d42abd4078c5272f55f7bb60b7bac8d35f68feeb7d74220cd3690600090a25050565b610761610f83565b7f9f2df0fed2c77648de5860a4cc508cd0818c85b8b8a1ab4ceeef8d981c8956a661078b81610f79565b610793610fa9565b600b5483600d546107a49190611dc3565b11156107e35760405162461bcd60e51b815260206004820152600960248201526818d85c0e881b5a5b9d60ba1b60448201526064015b60405180910390fd5b600a54604051635e8ad9eb60e01b8152600481018590526001600160a01b0390911690635e8ad9eb90602401602060405180830381865afa15801561082c573d6000803e3d6000fd5b505050506040513d601f19601f820116820180604052508101906108509190611dd6565b61089c5760405162461bcd60e51b815260206004820152601160248201527f706f723a206d696e7420626c6f636b656400000000000000000000000000000060448201526064016107da565b82600d60008282546108ae9190611dc3565b909155506108be90508484610fed565b60408051848152602081018490526001600160a01b038616917fc263b302aec62d29105026245f19e16f8e0137066ccd4a8bd941f716bd4096bb91015b60405180910390a250505050565b7f55435dd261a4b9b3364963f7738a7a662ad9c84396d64be3365284bb7f0a504161093381610f79565b600b839055600c82905560408051848152602081018490527ffa35f2d22b9a5eb6bed3254e60910f91291653a71679c8cbb1f00d24551a45c4910160405180910390a1505050565b600033610989858285611027565b6109948585856110a0565b506001949350505050565b6000828152600960205260409020600101546109ba81610f79565b6109c483836110ff565b50505050565b60006109d46111ad565b905090565b6001600160a01b0381163314610a025760405163334bd91960e11b815260040160405180910390fd5b610a0c82826112d8565b505050565b7f55435dd261a4b9b3364963f7738a7a662ad9c84396d64be3365284bb7f0a5041610a3b81610f79565b610a4361135f565b50565b7fe1dcbdb91df27212a29bc27177c840cf2f819ecf2187432e1fac86c2dd5dfca9610a7081610f79565b604080518481526020810184905285917f1a8f4f13d6ce7da8ca25bf723a7cae4c7b944a54a31bfb831ece898a65ea428491016108fb565b6001600160a01b0381166000908152600760205260408120546105fd565b7f55435dd261a4b9b3364963f7738a7a662ad9c84396d64be3365284bb7f0a5041610af081610f79565b610a436113b1565b600060608060008060006060610b0c6113ee565b610b1461141b565b60408051600080825260208201909252600f60f81b9b939a50919850469750309650945092509050565b60606004805461061290611d73565b610b55610f83565b7f3c11d16cbaffd01df69ce1c404f6340ee057498f5f00246190ea54220576a848610b7f81610f79565b610b87610fa9565b600c5482600e54610b989190611dc3565b1115610bd25760405162461bcd60e51b815260206004820152600960248201526831b0b81d10313ab93760b91b60448201526064016107da565b600a5460405163fa1348f360e01b8152600481018490526001600160a01b039091169063fa1348f390602401602060405180830381865afa158015610c1b573d6000803e3d6000fd5b505050506040513d601f19601f82011682018060405250810190610c3f9190611dd6565b610c8b5760405162461bcd60e51b815260206004820152601160248201527f706f723a206275726e20626c6f636b656400000000000000000000000000000060448201526064016107da565b81600e6000828254610c9d9190611dc3565b90915550610cad90508383611448565b826001600160a01b03167f696de425f79f4a40bc6d2122ca50507f0efbeabbff86a84871b7196ab8ea8df783604051610ce891815260200190565b60405180910390a2505050565b6000336106a38185856110a0565b83421115610d275760405163313c898160e11b8152600481018590526024016107da565b60007f6e71edae12b1b97f4d1f60370fef10105fa2faae0126114a169c64845d6126c9888888610d748c6001600160a01b0316600090815260076020526040902080546001810190915590565b6040805160208101969096526001600160a01b0394851690860152929091166060840152608083015260a082015260c0810186905260e0016040516020818303038152906040528051906020012090506000610dcf8261147e565b90506000610ddf828787876114ab565b9050896001600160a01b0316816001600160a01b031614610e26576040516325c0072360e11b81526001600160a01b0380831660048301528b1660248201526044016107da565b610e318a8a8a610f6c565b50505050505050505050565b600082815260096020526040902060010154610e5881610f79565b6109c483836112d8565b610e6d6000876110ff565b50610e987f55435dd261a4b9b3364963f7738a7a662ad9c84396d64be3365284bb7f0a5041866110ff565b50610ec37fe1dcbdb91df27212a29bc27177c840cf2f819ecf2187432e1fac86c2dd5dfca9856110ff565b50610eee7f9f2df0fed2c77648de5860a4cc508cd0818c85b8b8a1ab4ceeef8d981c8956a6856110ff565b50610f197f3c11d16cbaffd01df69ce1c404f6340ee057498f5f00246190ea54220576a848856110ff565b50600a805473ffffffffffffffffffffffffffffffffffffffff19166001600160a01b039490941693909317909255600b55600c555050600f805465ffffffffffff19164265ffffffffffff1617905550565b610a0c83838360016114d9565b610a4381336115ae565b60085460ff1615610fa75760405163d93c066560e01b815260040160405180910390fd5b565b600f546201518090610fc39065ffffffffffff1642611df8565b10610fa757600f805465ffffffffffff19164265ffffffffffff161790556000600d819055600e55565b6001600160a01b0382166110175760405163ec442f0560e01b8152600060048201526024016107da565b61102360008383611603565b5050565b6001600160a01b038381166000908152600160209081526040808320938616835292905220546000198110156109c4578181101561109157604051637dc7a0d960e11b81526001600160a01b038416600482015260248101829052604481018390526064016107da565b6109c4848484840360006114d9565b6001600160a01b0383166110ca57604051634b637e8f60e11b8152600060048201526024016107da565b6001600160a01b0382166110f45760405163ec442f0560e01b8152600060048201526024016107da565b610a0c838383611603565b60008281526009602090815260408083206001600160a01b038516845290915281205460ff166111a55760008381526009602090815260408083206001600160a01b03861684529091529020805460ff1916600117905561115d3390565b6001600160a01b0316826001600160a01b0316847f2f8788117e7eff1d82e926ec794901d17c78024a50270940304540a733656f0d60405160405180910390a45060016105fd565b5060006105fd565b6000306001600160a01b037f00000000000000000000000000000000000000000000000000000000000000001614801561120657507f000000000000000000000000000000000000000000000000000000000000000046145b1561123057507f000000000000000000000000000000000000000000000000000000000000000090565b6109d4604080517f8b73c3c69bb8fe3d512ecc4cf759cc79239f7b179b0ffacaa9a75d522b39400f60208201527f0000000000000000000000000000000000000000000000000000000000000000918101919091527f000000000000000000000000000000000000000000000000000000000000000060608201524660808201523060a082015260009060c00160405160208183030381529060405280519060200120905090565b60008281526009602090815260408083206001600160a01b038516845290915281205460ff16156111a55760008381526009602090815260408083206001600160a01b0386168085529252808320805460ff1916905551339286917ff6391f5c32d9c69d2a47ea670b442974b53935d1edc7fd64eb21e047a839171b9190a45060016105fd565b61136761172d565b6008805460ff191690557f5db9ee0a495bf2e6ff9c91a7834c1ba4fdd244a5e8aa4e537bd38aeae4b073aa335b6040516001600160a01b03909116815260200160405180910390a1565b6113b9610f83565b6008805460ff191660011790557f62e78cea01bee320cd4e420270b5ea74000d11b0c9f74754ebdbfc544b05a2586113943390565b60606109d47f00000000000000000000000000000000000000000000000000000000000000006005611750565b60606109d47f00000000000000000000000000000000000000000000000000000000000000006006611750565b6001600160a01b03821661147257604051634b637e8f60e11b8152600060048201526024016107da565b61102382600083611603565b60006105fd61148b6111ad565b8360405161190160f01b8152600281019290925260228201526042902090565b6000806000806114bd888888886117fb565b9250925092506114cd82826118ca565b50909695505050505050565b6001600160a01b0384166115035760405163e602df0560e01b8152600060048201526024016107da565b6001600160a01b03831661152d57604051634a1406b160e11b8152600060048201526024016107da565b6001600160a01b03808516600090815260016020908152604080832093871683529290522082905580156109c457826001600160a01b0316846001600160a01b03167f8c5be1e5ebec7d5bd14f71427d1e84f3dd0314c0f7b2291e5b200ac8c7c3b925846040516115a091815260200190565b60405180910390a350505050565b60008281526009602090815260408083206001600160a01b038516845290915290205460ff166110235760405163e2517d3f60e01b81526001600160a01b0382166004820152602481018390526044016107da565b6001600160a01b03831661162e5780600260008282546116239190611dc3565b909155506116a09050565b6001600160a01b038316600090815260208190526040902054818110156116815760405163391434e360e21b81526001600160a01b038516600482015260248101829052604481018390526064016107da565b6001600160a01b03841660009081526020819052604090209082900390555b6001600160a01b0382166116bc576002805482900390556116db565b6001600160a01b03821660009081526020819052604090208054820190555b816001600160a01b0316836001600160a01b03167fddf252ad1be2c89b69c2b068fc378daa952ba7f163c4a11628f55a4df523b3ef8360405161172091815260200190565b60405180910390a3505050565b60085460ff16610fa757604051638dfc202b60e01b815260040160405180910390fd5b606060ff831461176a5761176383611983565b90506105fd565b81805461177690611d73565b80601f01602080910402602001604051908101604052809291908181526020018280546117a290611d73565b80156117ef5780601f106117c4576101008083540402835291602001916117ef565b820191906000526020600020905b8154815290600101906020018083116117d257829003601f168201915b505050505090506105fd565b600080807f7fffffffffffffffffffffffffffffff5d576e7357a4501ddfe92f46681b20a084111561183657506000915060039050826118c0565b604080516000808252602082018084528a905260ff891692820192909252606081018790526080810186905260019060a0016020604051602081039080840390855afa15801561188a573d6000803e3d6000fd5b5050604051601f1901519150506001600160a01b0381166118b6575060009250600191508290506118c0565b9250600091508190505b9450945094915050565b60008260038111156118de576118de611e0b565b036118e7575050565b60018260038111156118fb576118fb611e0b565b036119195760405163f645eedf60e01b815260040160405180910390fd5b600282600381111561192d5761192d611e0b565b0361194e5760405163fce698f760e01b8152600481018290526024016107da565b600382600381111561196257611962611e0b565b03611023576040516335e2f38360e21b8152600481018290526024016107da565b60606000611990836119c2565b604080516020808252818301909252919250600091906020820181803683375050509182525060208101929092525090565b600060ff8216601f8111156105fd57604051632cd44ac360e21b815260040160405180910390fd5b6000602082840312156119fc57600080fd5b81356001600160e01b031981168114611a1457600080fd5b9392505050565b6000815180845260005b81811015611a4157602081850181015186830182015201611a25565b506000602082860101526020601f19601f83011685010191505092915050565b602081526000611a146020830184611a1b565b80356001600160a01b0381168114611a8b57600080fd5b919050565b60008060408385031215611aa357600080fd5b611aac83611a74565b946020939093013593505050565b600060208284031215611acc57600080fd5b611a1482611a74565b600080600060608486031215611aea57600080fd5b611af384611a74565b95602085013595506040909401359392505050565b60008060408385031215611b1b57600080fd5b50508035926020909101359150565b600080600060608486031215611b3f57600080fd5b611b4884611a74565b9250611b5660208501611a74565b9150604084013590509250925092565b600060208284031215611b7857600080fd5b5035919050565b60008060408385031215611b9257600080fd5b82359150611ba260208401611a74565b90509250929050565b600080600060608486031215611bc057600080fd5b505081359360208301359350604090920135919050565b60ff60f81b881681526000602060e06020840152611bf860e084018a611a1b565b8381036040850152611c0a818a611a1b565b606085018990526001600160a01b038816608086015260a0850187905284810360c08601528551808252602080880193509091019060005b81811015611c5e57835183529284019291840191600101611c42565b50909c9b505050505050505050505050565b600080600080600080600060e0888a031215611c8b57600080fd5b611c9488611a74565b9650611ca260208901611a74565b95506040880135945060608801359350608088013560ff81168114611cc657600080fd5b9699959850939692959460a0840135945060c09093013592915050565b60008060008060008060c08789031215611cfc57600080fd5b611d0587611a74565b9550611d1360208801611a74565b9450611d2160408801611a74565b9350611d2f60608801611a74565b92506080870135915060a087013590509295509295509295565b60008060408385031215611d5c57600080fd5b611d6583611a74565b9150611ba260208401611a74565b600181811c90821680611d8757607f821691505b602082108103611da757634e487b7160e01b600052602260045260246000fd5b50919050565b634e487b7160e01b600052601160045260246000fd5b808201808211156105fd576105fd611dad565b600060208284031215611de857600080fd5b81518015158114611a1457600080fd5b818103818111156105fd576105fd611dad565b634e487b7160e01b600052602160045260246000fdfea26469706673582212201e63b183a975a783181c5f24355ead7ed1b9ae70ff2a446e5ae6bb4ca9cb227764736f6c63430008180033","linkReferences":{}},"methodIdentifiers":{"BURNER_ROLE()":"282c51f3","DEFAULT_ADMIN_ROLE()":"a217fddf","DOMAIN_SEPARATOR()":"3644e515","GUARDIAN_ROLE()":"24ea54f4","MINTER_ROLE()":"d5391393","TREASURY_ROLE()":"d11a57ec","allowance(address,address)":"dd62ed3e","approve(address,uint256)":"095ea7b3","attachTravelRule(bytes32,bytes32,bytes32)":"652c9570","balanceOf(address)":"70a08231","burn(address,uint256)":"9dc29fac","burnInEpoch()":"5c2d0efd","dailyBurnCap()":"9460e3cf","dailyMintCap()":"2832bcb5","decimals()":"313ce567","eip712Domain()":"84b0196e","epochStart()":"15e5a1e5","getRoleAdmin(bytes32)":"248a9ca3","grantRole(bytes32,address)":"2f2ff15d","hasRole(bytes32,address)":"91d14854","initialize(address,address,address,address,uint256,uint256)":"d7c41c79","mint(address,uint256,bytes32)":"1e458bee","mintInEpoch()":"8cb7f910","name()":"06fdde03","nonces(address)":"7ecebe00","pause()":"8456cb59","paused()":"5c975abb","permit(address,address,uint256,uint256,uint8,bytes32,bytes32)":"d505accf","por()":"08ae13bc","renounceRole(bytes32,address)":"36568abe","revokeRole(bytes32,address)":"d547741f","setCaps(uint256,uint256)":"212bf316","setPor(address)":"14c3635e","supportsInterface(bytes4)":"01ffc9a7","symbol()":"95d89b41","totalSupply()":"18160ddd","transfer(address,uint256)":"a9059cbb","transferFrom(address,address,uint256)":"23b872dd","unpause()":"3f4ba83a"},"storageLayout":{"storage":[{"astId":1772,"contract":"contracts/StablecoinCore.sol:StablecoinCore","label":"_balances","offset":0,"slot":"0","type":"t_mapping(t_address,t_uint256)"},{"astId":1778,"contract":"contracts/StablecoinCore.sol:StablecoinCore","label":"_allowances","offset":0,"slot":"1","type":"t_mapping(t_address,t_mapping(t_address,t_uint256))"},{"astId":1780,"contract":"contracts/StablecoinCore.sol:StablecoinCore","label":"_totalSupply","offset":0,"slot":"2","type":"t_uint256"},{"astId":1782,"contract":"contracts/StablecoinCore.sol:StablecoinCore","label":"_name","offset":0,"slot":"3","type":"t_string_storage"},{"astId":1784,"contract":"contracts/StablecoinCore.sol:StablecoinCore","label":"_symbol","offset":0,"slot":"4","type":"t_string_storage"},{"astId":5226,"contract":"contracts/StablecoinCore.sol:StablecoinCore","label":"_nameFallback","offset":0,"slot":"5","type":"t_string_storage"},{"astId":5228,"contract":"contracts/StablecoinCore.sol:StablecoinCore","label":"_versionFallback","offset":0,"slot":"6","type":"t_string_storage"},{"astId":2884,"contract":"contracts/StablecoinCore.sol:StablecoinCore","label":"_nonces","offset":0,"slot":"7","type":"t_mapping(t_address,t_uint256)"},{"astId":2999,"contract":"contracts/StablecoinCore.sol:StablecoinCore","label":"_paused","offset":0,"slot":"8","type":"t_bool"},{"astId":466,"contract":"contracts/StablecoinCore.sol:StablecoinCore","label":"_roles","offset":0,"slot":"9","type":"t_mapping(t_bytes32,t_struct(RoleData)461_storage)"},{"astId":61,"contract":"contracts/StablecoinCore.sol:StablecoinCore","label":"por","offset":0,"slot":"10","type":"t_contract(IPorManager)30"},{"astId":63,"contract":"contracts/StablecoinCore.sol:StablecoinCore","label":"dailyMintCap","offset":0,"slot":"11","type":"t_uint256"},{"astId":65,"contract":"contracts/StablecoinCore.sol:StablecoinCore","label":"dailyBurnCap","offset":0,"slot":"12","type":"t_uint256"},{"astId":67,"contract":"contracts/StablecoinCore.sol:StablecoinCore","label":"mintInEpoch","offset":0,"slot":"13","type":"t_uint256"},{"astId":69,"contract":"contracts/StablecoinCore.sol:StablecoinCore","label":"burnInEpoch","offset":0,"slot":"14","type":"t_uint256"},{"astId":71,"contract":"contracts/StablecoinCore.sol:StablecoinCore","label":"epochStart","offset":0,"slot":"15","type":"t_uint48"}],"types":{"t_address":{"encoding":"inplace","label":"address","numberOfBytes":"20"},"t_bool":{"encoding":"inplace","label":"bool","numberOfBytes":"1"},"t_bytes32":{"encoding":"inplace","label":"bytes32","numberOfBytes":"32"},"t_contract(IPorManager)30":{"encoding":"inplace","label":"contract IPorManager","numberOfBytes":"20"},"t_mapping(t_address,t_bool)":{"encoding":"mapping","key":"t_address","label":"mapping(address => bool)","numberOfBytes":"32","value":"t_bool"},"t_mapping(t_address,t_mapping(t_address,t_uint256))":{"encoding":"mapping","key":"t_address","label":"mapping(address => mapping(address => uint256))","numberOfBytes":"32","value":"t_mapping(t_address,t_uint256)"},"t_mapping(t_address,t_uint256)":{"encoding":"mapping","key":"t_address","label":"mapping(address => uint256)","numberOfBytes":"32","value":"t_uint256"},"t_mapping(t_bytes32,t_struct(RoleData)461_storage)":{"encoding":"mapping","key":"t_bytes32","label":"mapping(bytes32 => struct AccessControl.RoleData)","numberOfBytes":"32","value":"t_struct(RoleData)461_storage"},"t_string_storage":{"encoding":"bytes","label":"string","numberOfBytes":"32"},"t_struct(RoleData)461_storage":{"encoding":"inplace","label":"struct AccessControl.RoleData","numberOfBytes":"64","members":[{"astId":458,"contract":"contracts/StablecoinCore.sol:StablecoinCore","label":"hasRole","offset":0,"slot":"0","type":"t_mapping(t_address,t_bool)"},{"astId":460,"contract":"contracts/StablecoinCore.sol:StablecoinCore","label":"adminRole","offset":0,"slot":"1","type":"t_bytes32"}]},"t_uint256":{"encoding":"inplace","label":"uint256","numberOfBytes":"32"},"t_uint48":{"encoding":"inplace","label":"uint48","numberOfBytes":"6"}}},"id":0}