{"abi":[{"type":"function","name":"arithmeticError","inputs":[],"outputs":[{"name":"","type":"bytes","internalType":"bytes"}],"stateMutability":"view"},{"type":"function","name":"assertionError","inputs":[],"outputs":[{"name":"","type":"bytes","internalType":"bytes"}],"stateMutability":"view"},{"type":"function","name":"divisionError","inputs":[],"outputs":[{"name":"","type":"bytes","internalType":"bytes"}],"stateMutability":"view"},{"type":"function","name":"encodeStorageError","inputs":[],"outputs":[{"name":"","type":"bytes","internalType":"bytes"}],"stateMutability":"view"},{"type":"function","name":"enumConversionError","inputs":[],"outputs":[{"name":"","type":"bytes","internalType":"bytes"}],"stateMutability":"view"},{"type":"function","name":"indexOOBError","inputs":[],"outputs":[{"name":"","type":"bytes","internalType":"bytes"}],"stateMutability":"view"},{"type":"function","name":"memOverflowError","inputs":[],"outputs":[{"name":"","type":"bytes","internalType":"bytes"}],"stateMutability":"view"},{"type":"function","name":"popError","inputs":[],"outputs":[{"name":"","type":"bytes","internalType":"bytes"}],"stateMutability":"view"},{"type":"function","name":"zeroVarError","inputs":[],"outputs":[{"name":"","type":"bytes","internalType":"bytes"}],"stateMutability":"view"}],"bytecode":{"object":"0x61026561003a600b82828239805160001a60731461002d57634e487b7160e01b600052600060045260246000fd5b30600052607381538281f3fe730000000000000000000000000000000000000000301460806040526004361061009d5760003560e01c8063986c5f6811610070578063986c5f68146100d8578063b22dc54d146100e0578063b67689da146100e8578063d160e4de146100f0578063fa784a44146100f857600080fd5b806305ee8612146100a257806310332977146100c05780631de45560146100c85780638995290f146100d0575b600080fd5b6100aa610100565b6040516100b791906101e0565b60405180910390f35b6100aa610150565b6100aa610162565b6100aa610174565b6100aa610186565b6100aa610198565b6100aa6101aa565b6100aa6101bc565b6100aa6101ce565b604051603260248201526044015b60408051601f198184030181529190526020810180517bffffffffffffffffffffffffffffffffffffffffffffffffffffffff16634e487b7160e01b17905281565b6040516001602482015260440161010e565b6040516021602482015260440161010e565b6040516011602482015260440161010e565b6040516041602482015260440161010e565b6040516031602482015260440161010e565b6040516051602482015260440161010e565b6040516022602482015260440161010e565b6040516012602482015260440161010e565b60006020808352835180602085015260005b8181101561020e578581018301518582016040015282016101f2565b506000604082860101526040601f19601f830116850101925050509291505056fea2646970667358221220c3ffab60bc3835ad5da8477153e4466173101e681da7d3fd61aeb9c54915946964736f6c63430008180033","linkReferences":{}},"methodIdentifiers":{"arithmeticError()":"8995290f","assertionError()":"10332977","divisionError()":"fa784a44","encodeStorageError()":"d160e4de","enumConversionError()":"1de45560","indexOOBError()":"05ee8612","memOverflowError()":"986c5f68","popError()":"b22dc54d","zeroVarError()":"b67689da"},"id":52}