{"abi":[{"type":"constructor","inputs":[{"name":"_feed","type":"address","internalType":"address"},{"name":"_decimals","type":"uint256","internalType":"uint256"},{"name":"_stale","type":"uint256","internalType":"uint256"},{"name":"_devBps","type":"uint256","internalType":"uint256"}],"stateMutability":"nonpayable"},{"type":"function","name":"decimals","inputs":[],"outputs":[{"name":"","type":"uint256","internalType":"uint256"}],"stateMutability":"view"},{"type":"function","name":"isBurnAllowed","inputs":[{"name":"","type":"uint256","internalType":"uint256"}],"outputs":[{"name":"","type":"bool","internalType":"bool"}],"stateMutability":"view"},{"type":"function","name":"isMintAllowed","inputs":[{"name":"","type":"uint256","internalType":"uint256"}],"outputs":[{"name":"","type":"bool","internalType":"bool"}],"stateMutability":"view"},{"type":"function","name":"lastPrice","inputs":[],"outputs":[{"name":"","type":"int256","internalType":"int256"}],"stateMutability":"view"},{"type":"function","name":"maxDeviationBps","inputs":[],"outputs":[{"name":"","type":"uint256","internalType":"uint256"}],"stateMutability":"view"},{"type":"function","name":"priceFeed","inputs":[],"outputs":[{"name":"","type":"address","internalType":"contract AggregatorV3Interface"}],"stateMutability":"view"},{"type":"function","name":"refresh","inputs":[],"outputs":[{"name":"","type":"bool","internalType":"bool"}],"stateMutability":"nonpayable"},{"type":"function","name":"staleAfter","inputs":[],"outputs":[{"name":"","type":"uint256","internalType":"uint256"}],"stateMutability":"view"},{"type":"event","name":"PriceAccepted","inputs":[{"name":"price","type":"int256","indexed":false,"internalType":"int256"},{"name":"updatedAt","type":"uint256","indexed":false,"internalType":"uint256"}],"anonymous":false}],"bytecode":{"object":"0x60a060405234801561001057600080fd5b506040516104af3803806104af83398101604081905261002f91610061565b600080546001600160a01b0319166001600160a01b0395909516949094179093556080919091526002556001556100ac565b6000806000806080858703121561007757600080fd5b84516001600160a01b038116811461008e57600080fd5b60208601516040870151606090970151919890975090945092505050565b6080516103e96100c6600039600060ae01526103e96000f3fe608060405234801561001057600080fd5b50600436106100885760003560e01c8063741bef1a1161005b578063741bef1a14610101578063d2e9db491461012c578063f8ac93e814610135578063fa1348f3146100d957600080fd5b8063053f14da1461008d578063313ce567146100a95780633ee7a701146100d05780635e8ad9eb146100d9575b600080fd5b61009660035481565b6040519081526020015b60405180910390f35b6100967f000000000000000000000000000000000000000000000000000000000000000081565b61009660015481565b6100f16100e73660046102a8565b5060035460001290565b60405190151581526020016100a0565b600054610114906001600160a01b031681565b6040516001600160a01b0390911681526020016100a0565b61009660025481565b6100f160008060008060009054906101000a90046001600160a01b03166001600160a01b031663feaf968c6040518163ffffffff1660e01b815260040160a060405180830381865afa15801561018f573d6000803e3d6000fd5b505050506040513d601f19601f820116820180604052508101906101b391906102e0565b5093505092505060006101c68383610214565b9050801561020d57600383905560408051848152602081018490527f552a637c80e5b1ea9d1ef89983c582782a965df2261913937ede358b52a8094c910160405180910390a15b9392505050565b6000808313610225575060006102a2565b6002546102329083610346565b421115610241575060006102a2565b6003541561029e576000600354846102599190610359565b905060008112156102705761026d81610380565b90505b600154600354610280919061039c565b61028c8261271061039c565b111561029c5760009150506102a2565b505b5060015b92915050565b6000602082840312156102ba57600080fd5b5035919050565b805169ffffffffffffffffffff811681146102db57600080fd5b919050565b600080600080600060a086880312156102f857600080fd5b610301866102c1565b9450602086015193506040860151925060608601519150610324608087016102c1565b90509295509295909350565b634e487b7160e01b600052601160045260246000fd5b808201808211156102a2576102a2610330565b818103600083128015838313168383128216171561037957610379610330565b5092915050565b6000600160ff1b820161039557610395610330565b5060000390565b80820281158282048414176102a2576102a261033056fea2646970667358221220c744f65d736264294dd39a60eb9ed2960e0d8be32465cab6789df5697be8872064736f6c63430008180033","linkReferences":{}},"methodIdentifiers":{"decimals()":"313ce567","isBurnAllowed(uint256)":"fa1348f3","isMintAllowed(uint256)":"5e8ad9eb","lastPrice()":"053f14da","maxDeviationBps()":"3ee7a701","priceFeed()":"741bef1a","refresh()":"f8ac93e8","staleAfter()":"d2e9db49"},"id":2}