{"abi":[{"type":"constructor","inputs":[{"name":"_registry","type":"address","internalType":"address"},{"name":"_implementation","type":"address","internalType":"address"},{"name":"initialOwner","type":"address","internalType":"address"}],"stateMutability":"nonpayable"},{"type":"function","name":"accountImplementation","inputs":[],"outputs":[{"name":"","type":"address","internalType":"address"}],"stateMutability":"view"},{"type":"function","name":"approve","inputs":[{"name":"to","type":"address","internalType":"address"},{"name":"tokenId","type":"uint256","internalType":"uint256"}],"outputs":[],"stateMutability":"nonpayable"},{"type":"function","name":"balanceOf","inputs":[{"name":"owner","type":"address","internalType":"address"}],"outputs":[{"name":"","type":"uint256","internalType":"uint256"}],"stateMutability":"view"},{"type":"function","name":"fractionalize","inputs":[{"name":"tokenId","type":"uint256","internalType":"uint256"},{"name":"shares","type":"uint256","internalType":"uint256"}],"outputs":[],"stateMutability":"nonpayable"},{"type":"function","name":"getApproved","inputs":[{"name":"tokenId","type":"uint256","internalType":"uint256"}],"outputs":[{"name":"","type":"address","internalType":"address"}],"stateMutability":"view"},{"type":"function","name":"getVaultAccount","inputs":[{"name":"tokenId","type":"uint256","internalType":"uint256"}],"outputs":[{"name":"","type":"address","internalType":"address"}],"stateMutability":"view"},{"type":"function","name":"isApprovedForAll","inputs":[{"name":"owner","type":"address","internalType":"address"},{"name":"operator","type":"address","internalType":"address"}],"outputs":[{"name":"","type":"bool","internalType":"bool"}],"stateMutability":"view"},{"type":"function","name":"mintVault","inputs":[{"name":"to","type":"address","internalType":"address"},{"name":"assetCID","type":"bytes32","internalType":"bytes32"},{"name":"assetHash","type":"bytes32","internalType":"bytes32"},{"name":"valuation","type":"uint256","internalType":"uint256"},{"name":"custodian","type":"address","internalType":"address"}],"outputs":[{"name":"tokenId","type":"uint256","internalType":"uint256"}],"stateMutability":"nonpayable"},{"type":"function","name":"name","inputs":[],"outputs":[{"name":"","type":"string","internalType":"string"}],"stateMutability":"view"},{"type":"function","name":"nextTokenId","inputs":[],"outputs":[{"name":"","type":"uint256","internalType":"uint256"}],"stateMutability":"view"},{"type":"function","name":"owner","inputs":[],"outputs":[{"name":"","type":"address","internalType":"address"}],"stateMutability":"view"},{"type":"function","name":"ownerOf","inputs":[{"name":"tokenId","type":"uint256","internalType":"uint256"}],"outputs":[{"name":"","type":"address","internalType":"address"}],"stateMutability":"view"},{"type":"function","name":"registry","inputs":[],"outputs":[{"name":"","type":"address","internalType":"contract IERC6551Registry"}],"stateMutability":"view"},{"type":"function","name":"renounceOwnership","inputs":[],"outputs":[],"stateMutability":"nonpayable"},{"type":"function","name":"safeTransferFrom","inputs":[{"name":"from","type":"address","internalType":"address"},{"name":"to","type":"address","internalType":"address"},{"name":"tokenId","type":"uint256","internalType":"uint256"}],"outputs":[],"stateMutability":"nonpayable"},{"type":"function","name":"safeTransferFrom","inputs":[{"name":"from","type":"address","internalType":"address"},{"name":"to","type":"address","internalType":"address"},{"name":"tokenId","type":"uint256","internalType":"uint256"},{"name":"data","type":"bytes","internalType":"bytes"}],"outputs":[],"stateMutability":"nonpayable"},{"type":"function","name":"setApprovalForAll","inputs":[{"name":"operator","type":"address","internalType":"address"},{"name":"approved","type":"bool","internalType":"bool"}],"outputs":[],"stateMutability":"nonpayable"},{"type":"function","name":"supportsInterface","inputs":[{"name":"interfaceId","type":"bytes4","internalType":"bytes4"}],"outputs":[{"name":"","type":"bool","internalType":"bool"}],"stateMutability":"view"},{"type":"function","name":"symbol","inputs":[],"outputs":[{"name":"","type":"string","internalType":"string"}],"stateMutability":"view"},{"type":"function","name":"tokenURI","inputs":[{"name":"tokenId","type":"uint256","internalType":"uint256"}],"outputs":[{"name":"","type":"string","internalType":"string"}],"stateMutability":"view"},{"type":"function","name":"transferFrom","inputs":[{"name":"from","type":"address","internalType":"address"},{"name":"to","type":"address","internalType":"address"},{"name":"tokenId","type":"uint256","internalType":"uint256"}],"outputs":[],"stateMutability":"nonpayable"},{"type":"function","name":"transferOwnership","inputs":[{"name":"newOwner","type":"address","internalType":"address"}],"outputs":[],"stateMutability":"nonpayable"},{"type":"function","name":"vaults","inputs":[{"name":"","type":"uint256","internalType":"uint256"}],"outputs":[{"name":"assetCID","type":"bytes32","internalType":"bytes32"},{"name":"assetHash","type":"bytes32","internalType":"bytes32"},{"name":"valuation","type":"uint256","internalType":"uint256"},{"name":"totalShares","type":"uint256","internalType":"uint256"},{"name":"custodian","type":"address","internalType":"address"}],"stateMutability":"view"},{"type":"event","name":"Approval","inputs":[{"name":"owner","type":"address","indexed":true,"internalType":"address"},{"name":"approved","type":"address","indexed":true,"internalType":"address"},{"name":"tokenId","type":"uint256","indexed":true,"internalType":"uint256"}],"anonymous":false},{"type":"event","name":"ApprovalForAll","inputs":[{"name":"owner","type":"address","indexed":true,"internalType":"address"},{"name":"operator","type":"address","indexed":true,"internalType":"address"},{"name":"approved","type":"bool","indexed":false,"internalType":"bool"}],"anonymous":false},{"type":"event","name":"OwnershipTransferred","inputs":[{"name":"previousOwner","type":"address","indexed":true,"internalType":"address"},{"name":"newOwner","type":"address","indexed":true,"internalType":"address"}],"anonymous":false},{"type":"event","name":"SharesFractionalized","inputs":[{"name":"tokenId","type":"uint256","indexed":true,"internalType":"uint256"},{"name":"shares","type":"uint256","indexed":false,"internalType":"uint256"}],"anonymous":false},{"type":"event","name":"Transfer","inputs":[{"name":"from","type":"address","indexed":true,"internalType":"address"},{"name":"to","type":"address","indexed":true,"internalType":"address"},{"name":"tokenId","type":"uint256","indexed":true,"internalType":"uint256"}],"anonymous":false},{"type":"event","name":"VaultMinted","inputs":[{"name":"tokenId","type":"uint256","indexed":true,"internalType":"uint256"},{"name":"assetCID","type":"bytes32","indexed":false,"internalType":"bytes32"},{"name":"assetHash","type":"bytes32","indexed":false,"internalType":"bytes32"},{"name":"valuation","type":"uint256","indexed":false,"internalType":"uint256"}],"anonymous":false},{"type":"error","name":"ERC721IncorrectOwner","inputs":[{"name":"sender","type":"address","internalType":"address"},{"name":"tokenId","type":"uint256","internalType":"uint256"},{"name":"owner","type":"address","internalType":"address"}]},{"type":"error","name":"ERC721InsufficientApproval","inputs":[{"name":"operator","type":"address","internalType":"address"},{"name":"tokenId","type":"uint256","internalType":"uint256"}]},{"type":"error","name":"ERC721InvalidApprover","inputs":[{"name":"approver","type":"address","internalType":"address"}]},{"type":"error","name":"ERC721InvalidOperator","inputs":[{"name":"operator","type":"address","internalType":"address"}]},{"type":"error","name":"ERC721InvalidOwner","inputs":[{"name":"owner","type":"address","internalType":"address"}]},{"type":"error","name":"ERC721InvalidReceiver","inputs":[{"name":"receiver","type":"address","internalType":"address"}]},{"type":"error","name":"ERC721InvalidSender","inputs":[{"name":"sender","type":"address","internalType":"address"}]},{"type":"error","name":"ERC721NonexistentToken","inputs":[{"name":"tokenId","type":"uint256","internalType":"uint256"}]},{"type":"error","name":"OwnableInvalidOwner","inputs":[{"name":"owner","type":"address","internalType":"address"}]},{"type":"error","name":"OwnableUnauthorizedAccount","inputs":[{"name":"account","type":"address","internalType":"address"}]}],"bytecode":{"object":"0x608060405260016007553480156200001657600080fd5b50604051620018803803806200188083398101604081905262000039916200017b565b80604051806040016040528060098152602001681495d04815985d5b1d60ba1b8152506040518060400160405280600681526020016514959055531560d21b81525081600090816200008c91906200026c565b5060016200009b82826200026c565b5050506001600160a01b038116620000cd57604051631e4fbdf760e01b81526000600482015260240160405180910390fd5b620000d8816200010c565b5050600880546001600160a01b039384166001600160a01b0319918216179091556009805492909316911617905562000338565b600680546001600160a01b038381166001600160a01b0319831681179093556040519116919082907f8be0079c531659141344cd1fd0a4f28419497f9722a3daafe3b4186f6b6457e090600090a35050565b80516001600160a01b03811681146200017657600080fd5b919050565b6000806000606084860312156200019157600080fd5b6200019c846200015e565b9250620001ac602085016200015e565b9150620001bc604085016200015e565b90509250925092565b634e487b7160e01b600052604160045260246000fd5b600181811c90821680620001f057607f821691505b6020821081036200021157634e487b7160e01b600052602260045260246000fd5b50919050565b601f82111562000267576000816000526020600020601f850160051c81016020861015620002425750805b601f850160051c820191505b8181101562000263578281556001016200024e565b5050505b505050565b81516001600160401b03811115620002885762000288620001c5565b620002a081620002998454620001db565b8462000217565b602080601f831160018114620002d85760008415620002bf5750858301515b600019600386901b1c1916600185901b17855562000263565b600085815260208120601f198616915b828110156200030957888601518255948401946001909101908401620002e8565b5085821015620003285787850151600019600388901b60f8161c191681555b5050505050600190811b01905550565b61153880620003486000396000f3fe608060405234801561001057600080fd5b506004361061017d5760003560e01c806375794a3c116100e3578063a1ff74ed1161008c578063c87b56dd11610066578063c87b56dd1461037f578063e985e9c514610392578063f2fde38b146103ce57600080fd5b8063a1ff74ed14610346578063a22cb46514610359578063b88d4fde1461036c57600080fd5b80638c64ea4a116100bd5780638c64ea4a146102b65780638da5cb5b1461032d57806395d89b411461033e57600080fd5b806375794a3c146102875780637b10399914610290578063876274e5146102a357600080fd5b806311464fbe116101455780636352211e1161011f5780636352211e1461024b57806370a082311461025e578063715018a61461027f57600080fd5b806311464fbe1461021257806323b872dd1461022557806342842e0e1461023857600080fd5b806301ffc9a71461018257806306fdde03146101aa578063081812fc146101bf578063095ea7b3146101ea5780630c386fda146101ff575b600080fd5b6101956101903660046110ea565b6103e1565b60405190151581526020015b60405180910390f35b6101b2610433565b6040516101a19190611157565b6101d26101cd36600461116a565b6104c5565b6040516001600160a01b0390911681526020016101a1565b6101fd6101f8366004611198565b6104ee565b005b6101fd61020d3660046111c4565b6104fd565b6009546101d2906001600160a01b031681565b6101fd6102333660046111e6565b610559565b6101fd6102463660046111e6565b6105e9565b6101d261025936600461116a565b610609565b61027161026c366004611227565b610614565b6040519081526020016101a1565b6101fd61065c565b61027160075481565b6008546101d2906001600160a01b031681565b6101d26102b136600461116a565b610670565b6102fc6102c436600461116a565b600a6020526000908152604090208054600182015460028301546003840154600490940154929391929091906001600160a01b031685565b6040805195865260208601949094529284019190915260608301526001600160a01b0316608082015260a0016101a1565b6006546001600160a01b03166101d2565b6101b26106ff565b610271610354366004611244565b61070e565b6101fd61036736600461129a565b610880565b6101fd61037a3660046112ee565b61088b565b6101b261038d36600461116a565b6108a3565b6101956103a03660046113ce565b6001600160a01b03918216600090815260056020908152604080832093909416825291909152205460ff1690565b6101fd6103dc366004611227565b610918565b60006001600160e01b031982166380ac58cd60e01b148061041257506001600160e01b03198216635b5e139f60e01b145b8061042d57506301ffc9a760e01b6001600160e01b03198316145b92915050565b606060008054610442906113fc565b80601f016020809104026020016040519081016040528092919081815260200182805461046e906113fc565b80156104bb5780601f10610490576101008083540402835291602001916104bb565b820191906000526020600020905b81548152906001019060200180831161049e57829003601f168201915b5050505050905090565b60006104d082610956565b506000828152600460205260409020546001600160a01b031661042d565b6104f982823361098f565b5050565b61050561099c565b6000828152600a6020526040908190206003018290555182907f4f940e3476bd979616ec86ef78c7809ecdc85b4864b598f75a92d6c987e130dc9061054d9084815260200190565b60405180910390a25050565b6001600160a01b03821661058857604051633250574960e11b8152600060048201526024015b60405180910390fd5b60006105958383336109c9565b9050836001600160a01b0316816001600160a01b0316146105e3576040516364283d7b60e01b81526001600160a01b038086166004830152602482018490528216604482015260640161057f565b50505050565b6106048383836040518060200160405280600081525061088b565b505050565b600061042d82610956565b60006001600160a01b038216610640576040516322718ad960e21b81526000600482015260240161057f565b506001600160a01b031660009081526003602052604090205490565b61066461099c565b61066e6000610ac2565b565b60085460095460405163246a002160e01b81526001600160a01b0391821660048201526000602482018190524660448301523060648301526084820185905292919091169063246a00219060a401602060405180830381865afa1580156106db573d6000803e3d6000fd5b505050506040513d601f19601f8201168201806040525081019061042d9190611436565b606060018054610442906113fc565b600061071861099c565b6007805490600061072883611453565b9190505590506107388682610b14565b6040805160a08101825286815260208082018781528284018781526000606085018181526001600160a01b0389811660808801908152898452600a909652878320965187559351600187015591516002860155905160038501559151600493840180546001600160a01b0319169183169190911790556008546009549451638a54c52f60e01b8152948216938501939093526024840191909152466044840152306064840152608483018490521690638a54c52f9060a4016020604051808303816000875af115801561080f573d6000803e3d6000fd5b505050506040513d601f19601f820116820180604052508101906108339190611436565b50604080518681526020810186905290810184905281907f18cbddd1df849e094f03d674ad6309e197c9a7cf3f9659c102bfff0aada21a389060600160405180910390a295945050505050565b6104f9338383610b79565b610896848484610559565b6105e33385858585610c18565b60606108ae82610956565b5060006108c660408051602081019091526000815290565b905060008151116108e65760405180602001604052806000815250610911565b806108f084610d43565b60405160200161090192919061147a565b6040516020818303038152906040525b9392505050565b61092061099c565b6001600160a01b03811661094a57604051631e4fbdf760e01b81526000600482015260240161057f565b61095381610ac2565b50565b6000818152600260205260408120546001600160a01b03168061042d57604051637e27328960e01b81526004810184905260240161057f565b6106048383836001610de3565b6006546001600160a01b0316331461066e5760405163118cdaa760e01b815233600482015260240161057f565b6000828152600260205260408120546001600160a01b03908116908316156109f6576109f6818486610f08565b6001600160a01b03811615610a3457610a13600085600080610de3565b6001600160a01b038116600090815260036020526040902080546000190190555b6001600160a01b03851615610a63576001600160a01b0385166000908152600360205260409020805460010190555b60008481526002602052604080822080546001600160a01b0319166001600160a01b0389811691821790925591518793918516917fddf252ad1be2c89b69c2b068fc378daa952ba7f163c4a11628f55a4df523b3ef91a4949350505050565b600680546001600160a01b038381166001600160a01b0319831681179093556040519116919082907f8be0079c531659141344cd1fd0a4f28419497f9722a3daafe3b4186f6b6457e090600090a35050565b6001600160a01b038216610b3e57604051633250574960e11b81526000600482015260240161057f565b6000610b4c838360006109c9565b90506001600160a01b03811615610604576040516339e3563760e11b81526000600482015260240161057f565b6001600160a01b038216610bab57604051630b61174360e31b81526001600160a01b038316600482015260240161057f565b6001600160a01b03838116600081815260056020908152604080832094871680845294825291829020805460ff191686151590811790915591519182527f17307eab39ab6107e8899845ad3d59bd9653f200f220920489ca2b5937696c31910160405180910390a3505050565b6001600160a01b0383163b15610d3c57604051630a85bd0160e11b81526001600160a01b0384169063150b7a0290610c5a9088908890879087906004016114a9565b6020604051808303816000875af1925050508015610c95575060408051601f3d908101601f19168201909252610c92918101906114e5565b60015b610cfe573d808015610cc3576040519150601f19603f3d011682016040523d82523d6000602084013e610cc8565b606091505b508051600003610cf657604051633250574960e11b81526001600160a01b038516600482015260240161057f565b805160208201fd5b6001600160e01b03198116630a85bd0160e11b14610d3a57604051633250574960e11b81526001600160a01b038516600482015260240161057f565b505b5050505050565b60606000610d5083610f6c565b600101905060008167ffffffffffffffff811115610d7057610d706112d8565b6040519080825280601f01601f191660200182016040528015610d9a576020820181803683370190505b5090508181016020015b600019017f3031323334353637383961626364656600000000000000000000000000000000600a86061a8153600a8504945084610da457509392505050565b8080610df757506001600160a01b03821615155b15610ed8576000610e0784610956565b90506001600160a01b03831615801590610e335750826001600160a01b0316816001600160a01b031614155b8015610e6557506001600160a01b0380821660009081526005602090815260408083209387168352929052205460ff16155b15610e8e5760405163a9fbf51f60e01b81526001600160a01b038416600482015260240161057f565b8115610ed65783856001600160a01b0316826001600160a01b03167f8c5be1e5ebec7d5bd14f71427d1e84f3dd0314c0f7b2291e5b200ac8c7c3b92560405160405180910390a45b505b5050600090815260046020526040902080546001600160a01b0319166001600160a01b0392909216919091179055565b610f1383838361104e565b610604576001600160a01b038316610f4157604051637e27328960e01b81526004810182905260240161057f565b60405163177e802f60e01b81526001600160a01b03831660048201526024810182905260440161057f565b6000807a184f03e93ff9f4daa797ed6e38ed64bf6a1f0100000000000000008310610fb5577a184f03e93ff9f4daa797ed6e38ed64bf6a1f010000000000000000830492506040015b6d04ee2d6d415b85acef81000000008310610fe1576d04ee2d6d415b85acef8100000000830492506020015b662386f26fc100008310610fff57662386f26fc10000830492506010015b6305f5e1008310611017576305f5e100830492506008015b612710831061102b57612710830492506004015b6064831061103d576064830492506002015b600a831061042d5760010192915050565b60006001600160a01b038316158015906110cc5750826001600160a01b0316846001600160a01b031614806110a857506001600160a01b0380851660009081526005602090815260408083209387168352929052205460ff165b806110cc57506000828152600460205260409020546001600160a01b038481169116145b949350505050565b6001600160e01b03198116811461095357600080fd5b6000602082840312156110fc57600080fd5b8135610911816110d4565b60005b8381101561112257818101518382015260200161110a565b50506000910152565b60008151808452611143816020860160208601611107565b601f01601f19169290920160200192915050565b602081526000610911602083018461112b565b60006020828403121561117c57600080fd5b5035919050565b6001600160a01b038116811461095357600080fd5b600080604083850312156111ab57600080fd5b82356111b681611183565b946020939093013593505050565b600080604083850312156111d757600080fd5b50508035926020909101359150565b6000806000606084860312156111fb57600080fd5b833561120681611183565b9250602084013561121681611183565b929592945050506040919091013590565b60006020828403121561123957600080fd5b813561091181611183565b600080600080600060a0868803121561125c57600080fd5b853561126781611183565b9450602086013593506040860135925060608601359150608086013561128c81611183565b809150509295509295909350565b600080604083850312156112ad57600080fd5b82356112b881611183565b9150602083013580151581146112cd57600080fd5b809150509250929050565b634e487b7160e01b600052604160045260246000fd5b6000806000806080858703121561130457600080fd5b843561130f81611183565b9350602085013561131f81611183565b925060408501359150606085013567ffffffffffffffff8082111561134357600080fd5b818701915087601f83011261135757600080fd5b813581811115611369576113696112d8565b604051601f8201601f19908116603f01168101908382118183101715611391576113916112d8565b816040528281528a60208487010111156113aa57600080fd5b82602086016020830137600060208483010152809550505050505092959194509250565b600080604083850312156113e157600080fd5b82356113ec81611183565b915060208301356112cd81611183565b600181811c9082168061141057607f821691505b60208210810361143057634e487b7160e01b600052602260045260246000fd5b50919050565b60006020828403121561144857600080fd5b815161091181611183565b60006001820161147357634e487b7160e01b600052601160045260246000fd5b5060010190565b6000835161148c818460208801611107565b8351908301906114a0818360208801611107565b01949350505050565b60006001600160a01b038087168352808616602084015250836040830152608060608301526114db608083018461112b565b9695505050505050565b6000602082840312156114f757600080fd5b8151610911816110d456fea2646970667358221220223f27aeab652103b5ff84c72505608b3384332ecf6197de1879e2e0aae3722f64736f6c63430008180033","linkReferences":{}},"methodIdentifiers":{"accountImplementation()":"11464fbe","approve(address,uint256)":"095ea7b3","balanceOf(address)":"70a08231","fractionalize(uint256,uint256)":"0c386fda","getApproved(uint256)":"081812fc","getVaultAccount(uint256)":"876274e5","isApprovedForAll(address,address)":"e985e9c5","mintVault(address,bytes32,bytes32,uint256,address)":"a1ff74ed","name()":"06fdde03","nextTokenId()":"75794a3c","owner()":"8da5cb5b","ownerOf(uint256)":"6352211e","registry()":"7b103999","renounceOwnership()":"715018a6","safeTransferFrom(address,address,uint256)":"42842e0e","safeTransferFrom(address,address,uint256,bytes)":"b88d4fde","setApprovalForAll(address,bool)":"a22cb465","supportsInterface(bytes4)":"01ffc9a7","symbol()":"95d89b41","tokenURI(uint256)":"c87b56dd","transferFrom(address,address,uint256)":"23b872dd","transferOwnership(address)":"f2fde38b","vaults(uint256)":"8c64ea4a"},"id":5}